:020000040001F9
:10F00000005A002015F401001DF401001FF4010056
:10F0100021F4010023F4010025F4010000000000A8
:10F0200000000000000000000000000027F40100C4
:10F0300029F40100000000002BF401002DF4010070
:10F040005DFC01002FF401004D0002002FF40100CF
:10F050002FF401002FF4010059FA01002FF40100F0
:10F060002FF401002FF401002FF401002FF4010010
:10F070002FF401002FF401002FF401002FF4010000
:10F080002FF40100F5FC01002FF401002FF4010022
:10F0900089FD01002FF401008DFD01002FF4010016
:10F0A0002FF401002FF401002FF401002FF40100D0
:10F0B0002FF401002FF40100000000000000000008
:10F0C0002FF401002FF401002FF401002FF40100B0
:10F0D0002FF401002FF401002FF4010000000000C4
:10F0E0000000000000000000000000000000000020
:10F0F0000000000000000000000000000000000010
:10F1000000000000000000000000000000000000FF
:10F1100000000000000000000000000000000000EF
:10F40000DFF80CD000F05CFA0048004735410200FC
:10F41000005A00200648804706480047FEE7FEE7FE
:10F42000FEE7FEE7FEE7FEE7FEE7FEE7FEE7FEE7B4
:10F43000B1FD010001F4010000487047A083020003
:10F4400040EA01039B0703D009E008C9121F08C066
:10F45000042AFAD203E011F8013B00F8013B521EE6
:10F46000F9D27047D2B201E000F8012B491EFBD25D
:10F4700070470022F6E710B513460A4604461946BF
:10F48000FFF7F0FF204610BD421C10F8011B0029B9
:10F49000FBD1801A704730B504460020034600E0D7
:10F4A0005B1C934203D2E05CCD5C401BF8D030BDC6
:10F4B000034611F8012B00F8012B002AF9D1184658
:10F4C000704730B50B46014600202022012409E098
:10F4D00021FA02F59D4205D303FA02F5491B04FA0D
:10F4E00002F52844151EA2F10102F1DC30BD2DE920
:10F4F000F05F0546002092469B46884606468146B8
:10F5000040241BE0284641464746224600F0F9F9D0
:10F5100053465A46C01A914110D311461846224606
:10F5200000F0E0F92D1A67EB01084F462246012052
:10F53000002100F0D7F917EB00094E41201EA4F17D
:10F540000104DFDC484631462A464346BDE8F09FC9
:10F550002DE9FE4F804681EA0300C00F0C46009063
:10F5600021F0004123F00045B8EB0200A94105D28B
:10F570004046214690461C460B46024623F000407A
:10F58000104347D0270DC7F30A00C3F30A51029076
:10F59000401A019040286BDAC3F3130040F4801B3B
:10F5A0000098924620B10023D2EB030A63EB0B0BC9
:10F5B00001985946C0F14002504600F093F90646C2
:10F5C0000D4650465946019A00F0ABF910EB080081
:10F5D0006141002487EA115284EAE7731A4340D05C
:10F5E000009A62B3019A012A4FEA075215DC001B08
:10F5F00061EB02014FF0004202EA0752CDE90042FE
:10F60000001C41F5801132462B4600F0ABF903B0E7
:10F61000BDE8F08F40462146F9E7001B61EB02018F
:10F62000001C41F5801300185B412018A2F500175B
:10F6300047EB030140EAD570B6196D4111E06D0842
:10F640004FEA360645EAC0754FEA0752001B61EBE8
:10F650000201001C41F5801149084FEA30000019F1
:10F66000514132462B4603B0BDE8F04F00F06BB974
:10F670000098012240000023D0EB020263EBE0730C
:10F68000009821464FEAE074B8EB000061EB0401FA
:10F69000E9E783F000435BE781F0004158E72DE99B
:10F6A000FE4F81EA030404F0004421F0004100947D
:10F6B0004FF0000B23F0004350EA01045ED052EA01
:10F6C00003045BD0C3F30A54C1F30A552C44A4F2DB
:10F6D000F3340194A0FB0254C1F3130141F48011EF
:10F6E000C3F3130343F4801301FB024400FB034EF6
:10F6F000840A970A44EA815447EA8357A4FB0768BF
:10F7000002958D0A05FB07854FEA932C04FB0C54E8
:10F710002705029D4FEA065847EA1637B5EB08055C
:10F720006EEB070C870E920E47EA811742EA8312AE
:10F73000A7FB0201B6EB0B0164EB00042B0D43EABF
:10F740000C335E1844EB1C50DA465146E7FB0201CD
:10F75000C5F313044FEA0B3343EA14534FEA043260
:10F76000019C43EA0603A4F10C040294009CCDE939
:10F7700000B400F0F7F803B0BDE8F08F00200146B8
:10F78000F9E72DE9F04D81EA030404F0004B21F084
:10F79000004514464FF0000A23F0004150EA0502EC
:10F7A00020D054EA01021DD0C5F30A570246C5F322
:10F7B0001303C1F31300C1F30A5640F4801543F458
:10F7C0008013A7EB0608101BD64608F2FD3873EB32
:10F7D000050002D308F1010801E092185B41B8F17D
:10F7E000000F03DA00200146BDE8F08D00204FF441
:10F7F0008011064684460EE0171B73EB050705D300
:10F80000121B63EB050306434CEA010C49084FEA5F
:10F81000300092185B4150EA0107EDD152EA030033
:10F8200012D082EA040083EA0501084305D0101BC8
:10F83000AB4106D20122002306E000224FF0004334
:10F8400002E06FF0010253101AEB06004CEB085176
:10F8500010EB0A0041EB0B01BDE8F04D00F073B86E
:10F86000C1F30A52C1F3130140F2FF3341F4801196
:10F870009A4202DA00200146704740F233439A422E
:10F88000A2F2334202DC524200F03BB800F02AB848
:10F8900030B5041E71F1000404DB4FF00044404217
:10F8A00064EB0101141E73F1000405DB1C464FF0EC
:10F8B0000043524263EB0403994208BF904230BDBB
:10F8C000064C074D06E0E06840F0010394E80700AD
:10F8D00098471034AC42F6D3FFF796FD40840200FF
:10F8E00060840200202A04DB203A00FA02F10020A2
:10F8F00070479140C2F1200320FA03F3194390406E
:10F900007047202A04DB203A21FA02F000217047D8
:10F9100021FA02F3D040C2F1200291400843194677
:10F920007047202A06DBCB17203A41FA02F043EA5F
:10F93000E07306E041FA02F3D040C2F120029140A8
:10F9400008431946704710B5141E73F1000408DA15
:10F95000401C41F1000192185B411A4301D120F093
:10F96000010010BD2DE9F04D92469B4611B1B1FA50
:10F9700081F202E0B0FA80F220329046FFF7B2FF47
:10F9800004460F4640EA0A0041EA0B0153465A4634
:10F99000084313D0114653EA010019D0C8F14002C0
:10F9A0005046FFF7AEFF05460E46504659464246C2
:10F9B000FFF798FF084305D0012004E020463946B0
:10F9C000BDE8F08D0020054346EAE0762C4337433E
:10F9D0000A986305E40AA0EB08000022FD0A44EA45
:10F9E00047540A3002D500200146E9E70105101905
:10F9F0006941DDE9084500196941BDE8F04DA2E71C
:10FA000070B58C1810F8015B15F0070301D110F8E0
:10FA1000013B2A1106D110F8012B03E010F8016B0D
:10FA200001F8016B5B1EF9D12B0705D40023521E90
:10FA30000DD401F8013BFAE710F8013BCB1A921CF8
:10FA400003E013F8015B01F8015B521EF9D5A142F6
:10FA5000D8D3002070BD00002DE9F04700268CB0FF
:10FA6000DFF86091B0464FF4807501243746069662
:10FA7000284605F03BF938B1D9F80403204203D0F9
:10FA8000284605F029F926432D1D64007F1CADB2E0
:10FA9000082FEDD34FF4BE74204605F027F948B186
:10FAA000204605F019F946F0004606AA012100207B
:10FAB00005F0FEF8444D16F0FF0F15D00127002485
:10FAC00037420DD009EB8401D1F81005D1F810159B
:10FAD000C0F3042055F82420C1F3014102B190473E
:10FAE0007F00641C082CEBD3002E67DA4FF0FF3048
:10FAF000CDE9088000263446281910F8507F90F987
:10FB0000000027F0C008401C44D009A9404604F07A
:10FB10006FFC58B34FEA9719404602F0A1FB55F825
:10FB200020701FB1B9F1030F03D00FE0B9F1030F3B
:10FB300030D108A84FEAD80208F00703815C4FF0E3
:10FB4000010C0CFA03FC41EA0C0181544FF0A04176
:10FB500001EB8800D0F8000706A9C0F3014A40462F
:10FB600004F046FC18B1BAF1020F03D012E0BAF16A
:10FB7000030F0FD1B9F1030F08D1BAF1020F1BD057
:10FB80000221404605F06DF8761CF6B217B14946E1
:10FB90004046B847641C042CAED3002E0ED06A46F3
:10FBA0000121002005F084F806990098884205D0CC
:10FBB0000690089809909DE70321E2E70CB0BDE8A4
:10FBC000F087000000600040142D002000F01F02AC
:10FBD000012191404009800000F1E020C0F880122E
:10FBE000704700F01F02012191404009800000F1A0
:10FBF000E020C0F88011704700F01F020121914001
:10FC00004009800000F1E020C0F80011704700F0CA
:10FC10001F02012191404009800000F1E020C0F85E
:10FC20000011704700F01F0201219140400980003F
:10FC300000F1E020C0F8001270474907090E0028C3
:10FC400006DA00F00F0000F1E02080F8141D704784
:10FC500000F1E02080F80014704700002DE9F04129
:10FC60004FF48077384604F0CBFB0124104EA507F3
:10FC700048B1384604F0CBFB0120C5F80803747086
:10FC8000002002F02DFB4FF48277384604F0B8FBD9
:10FC900000280BD0384604F0BAFB0220C5F8080350
:10FCA000B470BDE8F041012002F01ABBBDE8F0815C
:10FCB000002D00200FB4F8B5012189020C48FFF790
:10FCC000D8FB0B4CFF25AD0007A800902946204625
:10FCD000009B069A00F08AFA064600200090314602
:10FCE000204600F0C1F9F8BC08BC04B01847000079
:10FCF000FC35002007480021C0F84011C0F844112D
:10FD0000C0F84811C0F84C11C0F80011C0F8041137
:10FD100007F008BE0010014003480078002801D118
:10FD200000F0C0B9704700008435002070B50E4661
:10FD3000144900EB400001EBC0051446E86A183591
:10FD400020B101280FD0022805D113E0284600F089
:10FD5000DDF9A04201D2002411E0224631462846B6
:10FD600000F00CFA0BE0284600F0D0F9A042F4D2E3
:10FD70000446F2E73146284600F0D3F9044620460F
:10FD800070BD00008435002007F044BD074810B561
:10FD9000406830B18047002807D0BDE8104001F02E
:10FDA000C7B8BDE8104003F0B3BD10BD4422002029
:10FDB000F0B598480023021D01780125101D4FF071
:10FDC0008056062907D11478240704D10478C4F397
:10FDD0000314032C02D0062904D00FE08F4F8E4C61
:10FDE0007C670EE01478240708D10478C4F3031468
:10FDF000032C06D0042C04D0052C02D0062907D0F1
:10FE00000EE0D6F84442864FC4F342343C6002E030
:10FE10001478240704D10478C4F30314032C02D00B
:10FE2000062906D011E07F4C276827F080772760ED
:10FE30000EE01478240708D10478C4F30314032CCB
:10FE400006D0042C04D0052C02D006290AD011E0DB
:10FE50004FF08044C4F80C31C4F81031704C241FAA
:10FE6000236002E01478240704D10478C4F3031457
:10FE7000032C02D0062905D00CE0694F0324643717
:10FE80003C600AE01478240704D10478C4F3031416
:10FE9000032C02D006290DD014E0634F05243C60EA
:10FEA000614C78342560604C083423603F243F1D4A
:10FEB0003C6002E01478240704D10478C4F30314EE
:10FEC000052C02D0062957D068E058490968584ADD
:10FED00011605649091D0968121D11605349083106
:10FEE0000968121D116051490C310968121D116019
:10FEF0004E4910310968121D11604C4914310968CE
:10FF0000121D1160494918310968494A20321160AF
:10FF100046491C310968121D1160444920310968A5
:10FF2000121D1160414924310968121D11603F49B9
:10FF300028310968121D11603C492C310968121DD5
:10FF400011603A4930310968394A40321160374905
:10FF500034310968121D1160344938310968121DA5
:10FF6000116032493C310968121D11602F4940313E
:10FF70000968121D116002E0117809070ED100789E
:10FF8000C0F30310032803D0042801D0052805D1AD
:10FF9000D6F85802274900F04F000860214874380D
:10FFA000016841F470010160BFF34F8FBFF36F8FA1
:10FFB0004FF01021D1F80002002803DBD1F8040231
:10FFC000002822DA1C4A15601C480468002CFCD06A
:10FFD0001524C1F800420568002DFCD0C1F8044288
:10FFE00001680029FCD0136001680029FCD0BFF330
:10FFF0004F8F0C48F0380168114A01F4E061114359
:020000040002F8
:100000000160BFF34F8F00BFFDE70F490D48086047
:10001000F0BD0000E00F00F00DF0ADBA00C00740E9
:100020003C050040FCED00E01056004004040010C8
:1000300020C50040E40E004004E5014000E401401A
:100040000400FA050090D003582200200448017FE4
:1000500004480029024901D007F0F3BD07F062BD52
:100060006C2D00200020004070B505460C46A1B262
:10007000284600F007F8022101A000F003F870BD47
:100080000D0A000070B505460E46002407E000BFCB
:10009000285D01F09BF80028FAD1601C84B2B442BC
:1000A000F5DB70BD10B5124C02202061606111A01B
:1000B000A061A4F50470E0614FF40070206200209C
:1000C000A06260620BA1A164E062A4F11001E1648E
:1000D00010212165A0656065E06509A1E01DFFF7BD
:1000E000E7F908A12046FFF7E3F92020A07110BD31
:1000F000843500205465726D696E616C00000000EB
:100100005254540053454747455200000269C168A4
:100110008A4203D88068401A104400E0501A401EFA
:1001200070472DE9F047C4681746894606464FF0E8
:1001300000083069A04201D9051B02E0B168201A0D
:100140000D1AB0686D1E001BA84200D80546BD42BE
:1001500000D33D4670682A4620444946FFF770F9AF
:10016000B0687F1B2C44A844A944A04200D10024BD
:10017000F460002FDDD14046BDE8F0872DE9F04165
:10018000C6680446174688468068851B6068BD427D
:1001900006D93044FFF754F9F019E060BDE8F0816A
:1001A0002A463044FFF74CF97E1B08EB0501324626
:1001B0006068FFF745F9E660F0E700000FB41CB592
:1001C0000246002007AC00290BD0491ECDE90021D2
:1001D000054B6A462146069800F002F9009A002174
:1001E00011701CBC5DF814FB0F0B02007CB50446BB
:1001F00000201D46164600290BD0491ECDE90041BE
:10020000044B6A462946304600F0EAF8009A00217D
:1002100011707CBD0F0B020002E008C8121F08C15C
:10022000002AFAD170477047002001E001C1121F77
:10023000002AFBD1704700000121202803DA814009
:100240000548014003E0402802DA2038814009B126
:100250000120704700207047FC06FFBC2DE9FF5FBE
:1002600082B00021DDE90430020DDDF840B0034327
:1002700018D044F61050A2F2FF32424315141198E0
:1002800001281FD0A5EB0B00401C5FEA000A4FF0CD
:1002900000064E4FDFF83891B046504615D5CAF1EA
:1002A000000413E0119801244AA3012801D16FEA48
:1002B0000B010298119AC0E90031C0E9024206B070
:1002C000BDE8F09FCBF10000DFE704460021404A83
:1002D000491842EB0450CDE9001012E0E00707D0C6
:1002E00032463B4640464946FFF7D9F980468946A3
:1002F00032463B4610461946FFF7D1F906460F46EF
:100300006410002CEAD1DDE90401DDE90023BAF133
:10031000000F06DAFFF7C3F942464B46FFF7BFF975
:1003200005E0FFF72EFA42464B46FFF72AFA04464D
:100330000E460022284BFFF7ABFA03D84FF0FF30F0
:10034000014607E00022254B20463146FFF700F921
:10035000FFF786FA102409E0002C0ADB0A220023AA
:10036000FFF7C5F8039B30321A55641E50EA0102AC
:10037000F2D1641C039AC4F111031444119A012AA6
:1003800003D0012208430DD10AE0084304D0002025
:100390004FF0110B119072E7A3EB0B056D1E0DE0F2
:1003A0005B4504DD4FF0000205F1010504E003DACE
:1003B0004FF00002A5F10105002AECD00298119936
:1003C000C0E90231C0E9004579E7000000001440AF
:1003D0000000F03F300000000000F0430000E03F6C
:1003E0002DE9FF4F95B09B468946064600250FE252
:1003F000252877D100242746F84A0121059400E0FA
:10040000044316F8013F203B01FA03F01042F7D1F4
:1004100030782A2811D06FF02F033078A0F1300205
:10042000092A16D8059A44F0020402EB820203EB73
:1004300042021044761C0590EFE759F8042B059210
:10044000002A03DA504244F40054059044F00204B8
:10045000761C30782E2816D116F8010F44F00404CB
:100460002A280DD06FF02F023078A0F13003092B2D
:1004700009D807EB870302EB4303C718761CF3E7A1
:1004800059F8047B761C30786C280FD006DC4C2899
:1004900017D068280DD06A2814D104E0742810D031
:1004A0007A280FD10DE044F400140AE044F48014DB
:1004B00001E044F440147278824202D104F58014C1
:1004C000761C761C307866280BD013DC582877D041
:1004D00009DC002875D04528F6D04628F4D04728F6
:1004E0001AD19DE118E0632835D0642879D06528B9
:1004F00012D195E1702873D008DC6728F1D0692803
:100500006FD06E280DD06F2806D1B5E073282CD09F
:10051000752875D0782874D05A46179990476D1C65
:1005200075E1C4F30250022809D003280DD0D9F890
:10053000001004280DD00D6009F1040967E1D9F815
:100540000010EA17C1E90052F6E7D9F800100D8053
:10055000F2E70D70F0E719F8041B8DF80010002089
:100560008DF80100EA46012003E059F804AB4FF092
:10057000FF3061074FF0000102D40DE008F10101E6
:100580008846B9420FDA8045F8DB1AF808100029CE
:10059000F4D108E008F1010188468142FADB1AF83B
:1005A00008100029F6D105985B46A0EB0807214604
:1005B0003846179A00F094FA284400EB080507E043
:1005C0004DE029E10DE01AF8010B5A4617999047C2
:1005D000B8F10108F7D25B4621463846179A13E175
:1005E00042E00A220092C4F302524FF0000A022AAB
:1005F00008D059F804CB032A4FEAEC710AD00DE079
:1006000029E02AE009F1070121F00702F2E802C11E
:10061000914609E00FFA8CFC4FEAEC71042A03D1F1
:100620004FFA8CFC4FEAEC71002907DA0A460021E8
:10063000DCF1000C61EB02012D2202E0220504D561
:100640002B228DF80420012203E0E20701D02022B2
:10065000F7E7904659E00A2102E010220DE0102150
:100660004FF0000A00910BE010224FF0000A44F016
:1006700004040827009203E008224FF0000A0092C9
:10068000C4F30252022A05D059F804CB0021032AF0
:1006900008D009E009F1070121F00702F2E802C1E0
:1006A000914605E01FFA8CFC042A01D10CF0FF0CE6
:1006B0004FF00008220728D5702806D0009B83F051
:1006C000100353EA0A0305D00EE040228DF80420FF
:1006D000012208E05CEA010206D030228DF80420F5
:1006E0008DF8050002229046009B83F0080353EA30
:1006F0000A030AD15CEA010201D1620705D5302262
:100700008DF804204FF001087F1E582804D034A033
:1007100003900EA802900DE036A0F9E7534660461C
:10072000009AFEF7E4FE84460398825C0298401E1D
:10073000029002705CEA0100F0D1029806A9081A42
:1007400000F1200A600702D524F4803400E001277C
:10075000574502DDA7EB0A0000E0002000EB0A018C
:10076000009005984144401A0590E00306D45B468A
:100770002146179A059800F0B3F90544002706E0D2
:1007800001A85A46C05D179990476D1C7F1C4745CC
:10079000F6DBE0030CD55B462146179A059800F07E
:1007A0009FF9054404E030205A46179990476D1C84
:1007B0000099481E00900029F5DC08E00298029993
:1007C0005A460078491C0291179990476D1CBAF15E
:1007D0000001AAF1010AF1DC65E10000092801002D
:1007E00030313233343536373839616263646566A7
:1007F0000000000030313233343536373839414269
:10080000434445460000000000F058F90544761CBA
:10081000307800287FF4ECAD19B02846BDE8F08FA1
:10082000620700D4062709F1070222F0070CFCE852
:100830000223E14603F000485FEA080C02D00FF201
:10084000702C0DE05FEA045C02D50FF2682C07E023
:100850005FEAC47C02D00FF2602C01E0AFF2700CB2
:100860004FF0FF3823F00043CDF850C065280CD07E
:1008700006DC452809D046281DD047283DD13DE05B
:10088000662818D067287ED138E00021112F01DBBF
:10089000112000E0781CCDE9000106A90EA8FFF7A1
:1008A000DDFCDDE90F010E9A03910021009207F1B2
:1008B000010A04914DE04FF000400097CDE901108E
:1008C00006A90EA8FFF7CAFCDDE90F0203920E9BF2
:1008D00011990022DDF80CA00093049211B9791C43
:1008E00000EB010AB7EB0A0004D4C0F1FF3007F1B6
:1008F000010A0490AAEB0700019044E0012F00DAFE
:1009000001270021112F01DD112000E03846CDE93B
:10091000000106A90EA8FFF7A1FCDDE90F010E9A60
:100920000391002104910092BA4621070CD4039947
:10093000514500DA8A46BAF1010F05DD009AAAF1A5
:100940000101515C302908D0B84202DA10F1040FDD
:1009500006DA0121CDE9011015E0AAF10101E9E76C
:10096000002805DC049901440491AAEB000102E08F
:10097000411C514500DD8A460499401A401C0190F3
:100980004FF000400290200704D40198504501DB4D
:10099000CDF8048000208DF84F0002980DF14F072C
:1009A000B0F1004F25D02B200E9002984FF0020896
:1009B00000280CDA404202902D200E9007E00A2118
:1009C0000298FEF77EFD3031029007F8011DB8F164
:1009D0000001A8F10108F2DC02980028EFD1791E8D
:1009E0000E980870307800F0200040F0450007F8BD
:1009F000020D12A8C01B00F107081498007800B17E
:100A0000012000EB0A01019801EBE07105984144D7
:100A1000401A401E0590E00306D45B462146179A13
:100A2000059800F05DF805441498007818B15A460E
:100A3000179990476D1CE00324D55B462146179A11
:100A4000059800F04DF805441CE00498002807DBE9
:100A5000DDE90301884203DD0098405C179901E05D
:100A6000179930205A469047049805F10105401C1B
:100A700004900198401E019004D12E205A461799E7
:100A800090476D1CBAF10001AAF1010ADDDC05E016
:100A900017F8010B5A46179990476D1CB8F10001E1
:100AA000A8F10108F4DC5B462146179A0598ABE6ED
:100AB0002D0000002B000000200000002DE9F04177
:100AC000044600251E461746880404D405E039462E
:100AD0002020B0476D1C641EF9D52846BDE8F08182
:100AE0002DE9F041044600251E469046C80301D575
:100AF000302700E02027880404D505E04146384629
:100B0000B0476D1C641EF9D52846BDE8F0814A68DF
:100B1000002A06D00A68531C0B6010704868401EFB
:100B20004860704710B560B159B102780B7852082F
:100B3000B2EB530F05D10622401C491CFEF7ABFC5B
:100B400008B1002010BD012010BD2DE9FC47002593
:100B500017880646158090F82D001446894630B156
:100B60003A462146484600F055FF050009D1B078C5
:100B70004FF00C0A18B32088C846001DB84202D9AD
:100B80005046BDE8FC87684679DF0028F9D1208807
:100B9000032108F8001020881921401C80B2208011
:100BA00008F800102088401C80B2208000EB08016B
:100BB000BDF8000007F0BDF8218808442080F078D7
:100BC0000222C8B1218896F9033001F1030C48468E
:100BD000BC45D5D8425421884FF0010C491C89B23C
:100BE000218000F801C02188491C89B2218009F8C0
:100BF00001302088401C20807068B8B1218890F9AD
:100C0000003001F1030C4846BC45B9D84254218854
:100C10000A22491C89B2218042542188491C89B288
:100C2000218009F801302088401C2080308950B193
:100C3000CDE900474B460622022106F1080007F0E5
:100C4000D1F805009DD1308A50B1CDE900474B461F
:100C50000722032106F1100007F0C4F8050090D127
:100C6000308B50B1CDE900474B461522142106F1D7
:100C7000180007F0B7F8050083D1306A30B13B4661
:100C80002246494601F096FB0500DBD1706A30B17F
:100C90003B462246494603F0E7FA0500D2D196F8D2
:100CA0002C0038B13B4622464946304606F01AFA37
:100CB0000500C7D1307838B13B4622464946304618
:100CC00003F004FB0500BDD128465AE7134A002172
:100CD000535C0BB1012203E0491C0629F8D3002222
:100CE0000F49012806D0022809D003280CD0042877
:100CF00012D10DE0487810B10AB101207047887810
:100D000010B10AB102207047C87808B103207047BB
:100D1000087908B104207047002070476521002041
:100D2000B027002010B501220221002001F07CF83C
:100D300008B1072810D107220221012001F074F820
:100D400008B1072808D100210A22084601F06CF8F2
:100D500008B1072800D1002010BD000010B51F49C0
:100D6000ACB0D1E90001CDE92A015920ADF89C00D1
:100D70002AA829900720ADF8A0003C2101A8FEF781
:100D800078FB02208DF8040001248DF8064006202F
:100D90008DF807001248029027A80A903C2110A85D
:100DA000FEF767FB0E48ADF85040001D159020215E
:100DB0001FA8FEF75EFB4020239000208DF87F40A7
:100DC00024900090074B1FAA10A901A800F03AFB3D
:100DD000002801D000F0ACF82CB010BD142E020099
:100DE000282100202D52020070B58CB015460E4609
:100DF00000236C46C3F10F01415CE1545B1C102BD6
:100E0000F8D30D2104F11000FEF733FB0020C0F1F0
:100E10000F02315C2244401C11740328F7D368464A
:100E200043DF0020C0F10F01214491F82010295424
:100E3000401C0328F6D30CB070BD022000F0CEBEDB
:100E400070B50024064D06E06868012110F83400F2
:100E500003F098FB641C28788442F5D3002070BD11
:100E6000DC210020F8B515460C460646052A01D2BD
:100E70000720F8BD03F06CFC18B903F03BFC002818
:100E8000F7D1104900204E600C70C1E902500E4DA0
:100E900008610DE006EBC4006968009181788DF867
:100EA00001100078094A694603F0BEFB0028E0D132
:100EB000641EE4B2EED2BDE8F840054A00210248C3
:100EC00000F06AB8DC210020AC8202000D33020081
:100ED0001D2502000EA1012004F0E2F804F03AF80A
:100EE00004F03CF80028FBD10F480068C00700D090
:100EF00000BEBFF34F8F0C48E43801680B4A01F481
:100F0000E06111430160BFF34F8F00BFFDE70000B8
:100F10004150505F4552524F523A4552524F523A09
:100F2000466174616C0D0A00F0ED00E00400FA0502
:100F30000EB500210091CDE901106A4644F201008E
:100F4000FFF7C8FF0EBD10B58268C368934203D097
:100F500001F0B0FD002010BD052010BD29B112B177
:100F6000531E134203D0092070470E2070470160C2
:100F7000838000218160C1600846704710B5826897
:100F8000C3689A1A83889A4203D801F09DFD002015
:100F900010BD042010BD0000074B5B6823B12AB1CF
:100FA00020B10068037C1BB1082070470720704700
:100FB0004174426100207047002200202DE9F04773
:100FC000074698461446894690074FF0000526D1FB
:100FD0002CB305F0DDFD134E06F11000C6F80C80B1
:100FE0000570457080F802904460756035707570CA
:100FF0001420FEF7EBFD07211420FEF71EFE14203F
:10100000FEF7FAFD0848076007211120FEF715FEDC
:101010000548001F0068B0600020BDE8F087072089
:10102000FBE70000F0210020081501402DE9FC47F6
:10103000DFF87890D9F8043073B368B3052902D289
:101040000720BDE8FC87436933B3437C012B25D0DF
:10105000002704460025884616468DF8005068464D
:1010600000F0D2F801A806F0A5FEC8B10121017078
:101070000F4944600968C0E90218C0E904769DF888
:10108000040089F801009DF8000000F0E1F8142048
:10109000FEF7C8FD2846D4E70820D2E70F46D8E778
:1010A00004259DF8000000F0D3F8F3E700220020AB
:1010B000041501400649496839B130B1416921B18F
:1010C00000210174022106F009BC082070470000CD
:1010D0000022002010B5024803F02EFD002010BDB4
:1010E0003422002070B50A4E01460A48B578FFF751
:1010F0002AFF04464DB10020B070711C0122C81DAA
:1011000003F06CFB08B1FFF713FF204670BD000031
:101110002C2200203C2F0020F0B5284E89B01F461D
:101120000D00044672603BD0A888296882B224482A
:10113000FFF714FF002834D1A889A96882B220489B
:101140001030FFF70BFF00282BD120221D496846E5
:10115000FEF776F960690690207C00B101208DF8D9
:1011600014008DF81C70607C00B10E208DF8150005
:10117000E0680290A0680390206801906068009089
:101180000E48114A6946083003F0F4FA002808D1E5
:10119000B0702068401C04D09DF81D0018B106E016
:1011A000072009B0F0BD0548083003F06FFB034984
:1011B0000122491CC81D03F011FBF2E72C2200207C
:1011C0003C2F0020C8820200857A020010B501463B
:1011D0000B48FFF7D3FE040010D10A4803F0A0FC2F
:1011E00060B9084906480839FFF7ADFE30B905492E
:1011F00001220839034803F00DFC0446204610BDC7
:101200004C2F00203422002030B5EFF3108172B64D
:101210000D4A9468012324B10370002900D162B6FD
:1012200030BD93604FF0E023D3F88051074C254048
:101230001560C3F88041D3F8844154605A17C3F84D
:10124000842100220270E8E7AC2D0020FC06FFBCE0
:101250000B498A68002A11D000280FD1EFF31080C3
:1012600072B60B684FF0E022C2F800314B68C2F84A
:10127000043100228A60002800D162B67047000065
:10128000AC2D00202DE9F041064608680C46411CB3
:101290004FF0A0474FF0010506D005FA00F1C7F85E
:1012A0000815206803F0C2FC6068411C02D00021D0
:1012B00003F0ABFC3079204901EB4010A169007FBD
:1012C00000283068C0F8241525D0607D227D316863
:1012D0001043C1F86C05D4E900123068C0F80C1551
:1012E000C0F8142524E0A068411C02D0002103F0BE
:1012F0008CFCE068411C05D08540C7F80855E068C3
:1013000003F094FCD4E902123068C0F80825C0F854
:101310001015BDE8F081607D217D32680843C2F878
:101320006C05D4E900123068C0F81425C0F80C151B
:10133000207D0128D7D0ECE76C2D00202DE9F0436B
:10134000044687B0008800F001FB8146208802F047
:1013500051FA214F8046667A208800223978A568A4
:1013600000F042FBB9F1000F33D06079400711D58E
:101370000721404604F03CFBA0B108218DF80C1079
:1013800021880590ADF80E10ADF8108003A801F08B
:10139000B7F907E02088B97800F012FB10B1404699
:1013A00002F014FA03208DF800002088ADF8020046
:1013B0006079C0F380008DF80400A079C0F380004C
:1013C0008DF805008DF806508DF80760684601F02D
:1013D00097F907B0BDE8F083C0210020F0B50C46B6
:1013E00093B01F210726ADF80010ADF804100027B8
:1013F00050B1C17849070DD56A4602A9FFF7A5FB90
:10140000002808D102AD02E00025ADF800706CB1F3
:10141000E07810B1304613B0F0BD01AA0AA9204609
:10142000FFF793FB0028F6D10AAA02E00022ADF8EC
:101430000470BDF80400C3B2BDF80000C1B2284674
:1014400072DFE8E72DE9F0471F46DDF820801346FC
:101450008946040042D0EBB3404D0120002628709D
:10146000EE70202219463E48FDF7EAFFC5E90478F0
:101470004FF6FF702881AE613948AE83AE773C21CC
:101480002030FDF7F6FF3648217820300170A17832
:101490008170E178C170617841703149D4E90423E9
:1014A000C1E90C23D4E90223C1E90A23D4E90623C4
:1014B000C1E90E23616AE1B100F13C0100F148028B
:1014C00041628A60636A1B880B80616A436A89880B
:1014D000998000E002E00021436A07E00E20BDE8A9
:1014E000F087656AAD686D5C5554491C9D888D42D6
:1014F000F7D8A16AD9B11A4A9432A2F10C018A60D4
:101500008162A36A9B888B80A16A836A098819809B
:101510000021836A04E0A56AAD686D5C5554491CDE
:101520009D888D42F7D894F82C1080F82C10216AF1
:1015300049B10A490A310162226A52884A80216A05
:10154000026A09881180616801B141604946BDE8BD
:10155000F04703482030FFF741BF00004C21002036
:10156000B027002010B50188144C102918D011297B
:101570001CD01B2919D1007A002816D1E07805214A
:10158000401CB0FBF1F201FB120000BF00F050F86C
:1015900000280AD06169002907D0BDE8104008473B
:1015A000C17B012901D18088208110BD002161719A
:1015B000808821898842F8D10120E7E74C2100206A
:1015C00010B5022801D0032810D1094C60780028FA
:1015D0000CD000206070E07800F02AF8002805D0D8
:1015E0006169002902D0BDE81040084710BD000025
:1015F0004C21002010B574DF0B4C01200B496071A9
:101600000020E0710620C87000210848FFF7E6FEC0
:10161000002807D1E07800F00BF810B1616901B142
:101620008847002010BD00004C210020D02700205A
:101630002DE9F0413D4C804686B0207848B184F8D1
:10164000038004A801F038FB0498012628B16670D5
:1016500067E0082006B0BDE8F0810025A561344FA1
:10166000A583A577787810B1E078012806D0B878FE
:1016700058B1E078012801D0022806D1216919B1BA
:1016800026710820884700E025714046FFF71EFBC1
:10169000E070216939B1032801D0042803D13878DA
:1016A00008B1607990B1A5710095029501950395F7
:1016B0008DF800508DF808501C48E1781830052945
:1016C00025D2DFE801F03008111D2100E571A67177
:1016D00007208847E8E7A67001908DF80060ADF814
:1016E0000C50ADF80A5014E00221A17001908DF861
:1016F0000060B889ADF80C003889ADF80A0008E040
:10170000684605F033FD02E0684605F053FDE078D9
:1017100018B1684673DF00289CD1216909B1A0780F
:101720008847002096E7A570F7E700004C210020CD
:10173000B027002070B5054601461C220F48FDF772
:101740007FFE0F4C00262670286830B1016861606A
:101750004068A060201D7ADF02E00948001D7BDFA1
:1017600000280AD14FF6FF7060806670BDE87040B7
:10177000044A00210448FFF70FBC70BD84280020F4
:101780006C2100203D7D02002482020070B51E4CB9
:10179000068800231B49E289102E15D01B4D112EFF
:1017A0001CD0122E29D0502E17D130F8061F91428E
:1017B00013D14189022910D10C3000F0BFF988B152
:1017C000BDE8704000F03CBE84884C800469CC6069
:1017D000406908614B70002AF2D070BD4FF6FF706F
:1017E00048804B702868FFF765FC0028F5D0A16998
:1017F0000029F2D0BDE8704008478268CA60C0681E
:101800000861DDE76C21002084280020248202008A
:1018100002490A7D091D05F095BA0000A0280020A4
:1018200002460248C17D001D05F079BAA0280020BB
:1018300002460248017E001D05F071BAA028002072
:101840002DE9F047044603883F4801228CB000F19F
:10185000150A102B09D0112B55D01A2B71D1217AD2
:10186000B2EB111F54D2012353E0027D417D0546A6
:101870008A43011D06A805F065FA142206A901A8ED
:10188000FDF7DEFDDFF8C0900026374609F11409A8
:101890000DF104080AE000BF08EB46001D22838812
:1018A0004946281D009705F0FFF9761C0198B042C3
:1018B000F2D8287DA688C043C0B205F017FAA0F57B
:1018C0007F41FF3917D005EB400001238680324667
:1018D0005146281D05F05BFA012332464946281D72
:1018E00005F055FAE07B02280BD000231649A288A8
:1018F0001631281D20E00CB00420BDE8F047FFF7AA
:1019000017BB0123F2E70023A2885146001D13E014
:1019100000230D490546A2881731001D05F037FA4E
:10192000207A0221B1EB101F01D2012300E0002335
:101930000549A2881831281D0CB0BDE8F04705F014
:1019400026BA0CB0BDE8F087A028002070B50A4E7A
:1019500005460024317D2A46301D05F0E0F940B1EE
:10196000B17D2A46301D05F0DAF908B1022400E005
:101970000124204670BD0000A028002010B50024DE
:10198000204606F00BFA28B1641CE4B2182CF7D3F9
:10199000182010BD03480122A240016811430160D4
:1019A000204610BDA028002010B5044606F0F6F928
:1019B000002802D001482044407E10BDA02800200D
:1019C00070B505460C46084606F0E8F9002808D030
:1019D00004482A460119001D497EBDE8704005F003
:1019E0009EB970BDA028002070B5064615460C466D
:1019F000084606F0D3F9002809D005482B460119FE
:101A00003246BDE87040001D193105F0C0B970BD07
:101A1000A02800207CB5054608880C460930904275
:101A200001D90C207CBD68466DDF0028FAD12188E1
:101A30000820685420881B21401C80B22080295433
:101A40002088401C80B220802844DDF8011001600D
:101A5000BDF8051081802088801D80B220809DF80F
:101A60000010490800D0012129542088401C208002
:101A700000207CBD10B50446FFF7E2FE204604F0CE
:101A8000D1FC2046FFF782FE204600F027F92046D1
:101A900003F0F2FB2046FFF765FD2146BDE810404C
:101AA000014800F031B800003427002030B504466A
:101AB00085B04FF6FF70A082124B08680D46A061FA
:101AC0000FCB8DE80F0004F11201684663DF002898
:101AD00016D1A07C8DF8120041F22350ADF8100011
:101AE000224604A90120A0DF002809D1294620466A
:101AF00000F016FB002803D12946204601F09EFF86
:101B000005B030BD0C8302000A88102A10D0112ABB
:101B100010D0502A11D131F8062F43889A420CD1A7
:101B20004A89012A09D18269002A06D0097B104717
:101B3000898801E04FF6FF7181827047007800F0DC
:101B40000100704700B5164889B00023006807906F
:101B50005022144907A805F011FE08B1FFF7E8F973
:101B60006A460121002005F0F3FD08B1FFF7E0F916
:101B70001720ADF81000684605F09AFD08B1FFF790
:101B8000D7F9094805F08AFD08B1FFF7D1F90748F0
:101B900005F02CFE002801D0FFF7CAF909B000BDFE
:101BA000F0810200E4220020751A02000178020090
:101BB0000149085C704700000C8202000649095C7C
:101BC0004FF0A040D0F81005C84010F0010000D040
:101BD000012080F0010070470C82020007490B5C75
:101BE0004FF0A041D1F804250120984020EA0203DB
:101BF000C1F808351040C1F80C0570470D8202008D
:101C00000249085C002103F048B800000D82020080
:101C10000249085C012103F040B800000D82020077
:101C20000549095C4FF0A040D0F80405C84010F009
:101C3000010000D0012070470D8202007CB5002415
:101C4000084E25460122305D00950023114601957E
:101C500002F09CFF641C022CF4D3BDE87C4000F031
:101C600003B800000D82020010B500242046FFF7E3
:101C7000C7FF641C022CF9D310BD10B50024204608
:101C8000FFF7C6FF641C022CF9D310BD044B0246BB
:101C900000211B784FF0FF30934200D10846704777
:101CA0000C82020070B50C4E0C004FF00005306045
:101CB0000BD0012000F094F808B1022004E00020CD
:101CC00000F08EF800B10B202070706810B9FFF79B
:101CD00029F80546284670BD4421002010B51A4C4D
:101CE0000188606810290ED011292BD1401E606038
:101CF00028D1FFF717F8002824D02168002921D027
:101D0000BDE810400847D0B900210122084600F084
:101D10008BF808B107280FD107220221012000F01B
:101D200083F808B1072807D104220221002000F01F
:101D30007BF820B1072802D0216801B1884760688C
:101D4000401C606010BD00004421002010B5002040
:101D500000F096F908B1062806D1012000F090F9AC
:101D600008B1062800D1002010BD00002DE9F04187
:101D70000D468046FFF78AFF00282BD1174F1648E3
:101D80007C1C261FFDB1012D0BD0022D22D16578C0
:101D9000002D1FD0316900291CD02846BDE8F04134
:101DA00008472578617859B1B1680C4A01EB810187
:101DB0004900521E8068FFF739F908B986F8028099
:101DC000A0783870E4E78068FFF774F93878A57870
:101DD000A842DDD0BDE8F08110820200332100204E
:101DE000FFF7ECBE10B50F4A042807D007280FD024
:101DF0000A2816D1BDE8104005F0FEB9132150881D
:101E000076DF0CE000280CD0BDE81040FFF790B85A
:101E10005088A0F57F41FF3903D1FFF7EBFB08287D
:101E2000F0D110BD2821002003004FF000000AD19E
:101E3000094B012A02D1012907D0002251B1012901
:101E400004D0022904D0072070470E221A70704770
:101E50005A7070479A70704734210020044A014636
:101E60000020127BD20702D0084600F04FB870471E
:101E7000302100202DE9F04106461F4800240F467E
:101E80008160C0E90362B0071ED5002506E001228B
:101E900011462846FFF7C8FF04466D1C55EA0400AA
:101EA000F5D08CB97A0801211448FEF7DBFF040055
:101EB0000AD1FEF7C5FF040006D11048104A0021E0
:101EC000001FFFF769F80446F00701D0FFF7B6FEE0
:101ED00074B90A480B4A00210C38FFF75DF804007A
:101EE00006D10648084A01210838FFF755F804468C
:101EF0002046BDE8F0810000302100201C82020055
:101F0000F3210200993B02003B0E02002DE9F0474D
:101F1000594C05460026607818B100206070FFF724
:101F2000A3FE0120554F4FF47A694FF4C87A4FF061
:101F30006408182D2CD2DFE805F0890C0C2C3A47E8
:101F400051565A615A619B6969696969898C8F9296
:101F50009B9B0020FFF764FE00284FF0000008D094
:101F6000FFF74EFE022D02D14FF4E16006E0484635
:101F700004E0FFF74DFE022D2ED05046B0FBF8F1E5
:101F80002570A068414300223868FFF74FF80646E5
:101F900059E00020FFF744FE28B10020FFF730FE93
:101FA0004FF44870EAE70020FFF732FE14E000200B
:101FB000FFF736FE00284FF0000002D0FFF720FEAA
:101FC000D5E7FFF725FED8E70020FFF729FE002818
:101FD000E9D00020FFF714FEC820CFE70020FFF76C
:101FE000FDFD257007E000203FE025702BE06070CC
:101FF0000120FFF7F3FD0022A168C5E76070012012
:10200000FFF7ECFDA06800EB8001BCE77868FFF704
:1020100051F80646D5F1110000D01EB10220FFF79D
:10202000EFFD10E001280BD9C82110FB01F1B1FB35
:10203000F8F1A068002241437868FEF7F7FF0646F2
:102040000220FFF7E5FD3046BDE8F087FFF70CFE04
:10205000CBE7FFF709FEC6E7FFF706FE04E0FFF750
:1020600003FE0020FFF7D4FD0120FFF7D1FDBCE700
:10207000FFF703FEB9E700003021002010820200C4
:1020800010B5FFF795FD032102F0DAFD002010BD29
:10209000002901DA00207047026811440160012024
:1020A00070470000F8B5461C00208DF800000D4672
:1020B00001246846FFF7A8F8114A10682860D2E9A1
:1020C00000109568081A2B1A701C5B1C98420FD9D7
:1020D00063B10C480C4B294000681B6802EB81017E
:1020E00063F39F20C8601068401C1060002401E06A
:1020F000881910609DF80000FFF7AAF82046F8BD87
:102100005C2F0020E882020040220020034803C820
:10211000814201D101207047002070475C2F0020D0
:1021200030B58FB00024054607949DF81C001C2193
:1021300020F00F00401C20F0F00010308DF81C0043
:102140009DF81D0020F00F00401C20F0F000103022
:102150008DF81D009DF81E0020F00600801C8DF8F3
:102160001E006846FDF785F99DF80000019440F0D7
:1021700012008DF8000007A8CDE9044003940694EE
:10218000A87C8DF83A0041F22450ADF838000D9447
:102190009DF83400142120F00F00401C20F0F000C6
:1021A00010308DF834009DF8350020F0FF008DF8D8
:1021B00035009DF8360020F00600801C20F0190044
:1021C0008DF8360008A8FDF754F90EA808900DA860
:1021D00009900120ADF82800ADF82A40ADF82C0098
:1021E0000C94288805F10A0308AA6946A2DF0FB0FB
:1021F00030BD00780221FFF7B9BD000005494FF05E
:10220000FF32082841F8202002D3084480F84820F3
:1022100070470000142D0020F0B54FF0FF3512B1CB
:102220000023082601E008230C260C4C05E000BF23
:1022300054F823707F1C04D05B1CB342F8D32846AB
:10224000F0BD26185DB286F8305044F82310002AFD
:10225000F5D1E11881F84800F1E70000142D0020C5
:102260000249084490F9300070470000142D002006
:1022700038B10549814204D80449814201D901207D
:1022800070470020704700005C2200206C22002074
:10229000044A0168914201D0083101E0014938390E
:1022A00001607047942E002070B504464FF6FF750C
:1022B0000A462846AC4208D14FF4807421461046A5
:1022C00004F06CF8A04209D070BDFF2CFCD8214668
:1022D000104604F056F808B1204670BD284670BD7F
:1022E00070B5084C050009D010342168002907D0CA
:1022F00008682060496828468847F6E70834F4E70C
:1023000070BD0000002D00202DE9F05F26484168D7
:10231000F1B3DFF898B00E688146DBF800408768BB
:102320008078E11B21F07F45ED1CB0B9DFF880809B
:102330004FF48030C8F84403C8F804031120FDF7B7
:1023400045FC1120FDF758FC4FF0010AC8F800A029
:102350002F2002F065F889F802A0B54200D2354678
:10236000124BE8193C3320F07F401860DBF8001076
:102370005A46091B21F07F41001B20F07F40C91CF9
:1023800081420FD9106818602F2002F049F800E050
:1023900004E0BDE8F05F1120FDF744BCBDE8F05F4C
:1023A00004F0F6BBBDE8F09FF021002004150140C9
:1023B000001001402DE9F04117880646B81D14466B
:1023C0000D46984202D90C20BDE8F08131880722E1
:1023D00006290AD34FF4486C4FF6FF73614501D9C3
:1023E000994202D17088062801D21046ECE7604578
:1023F00001D99842F9D1994203D0984201D0814243
:10240000F3D80520E85520881221401C80B2208096
:1024100029542088401C80B220804119308805F062
:1024200088FC2188084480B220804119708805F01A
:1024300080FC2188084420800020C5E7FEF778BD95
:10244000F8B5134801F0DCFA114D0026114C0C3D93
:1024500030B16169B9B101208DF80000684611E022
:10246000287820B1616971B18DF80060F6E768786D
:1024700058B1A168084800220068FEF7D7FD10B1E6
:10248000A16901B188472E70F8BD6168F2E70000CC
:102490007821002084280020248202007FB50C4689
:1024A00010B1012004B070BD2079002638B141F68A
:1024B0001D5501281BD0022826D00F20F2E70296D6
:1024C0000396E0680190694601A804F093FA50B1C0
:1024D00002988188E18000882081BDF80010029870
:1024E00004F0FCFA00E00A2002212171DAE70A4B2D
:1024F0006A460021A01D04F039FA38B106490839AE
:102500008E60CE600A28CDD12846CBE7024881886C
:10251000019804F0E3FAF5E7182200202DE9F041D4
:1025200000260125144C22E06068226900EBC607F2
:10253000387805FA00F1114217D08A43226102F07F
:10254000CFF802463878E36805FA00F1194002FA3C
:1025500000F3994209D17978012901D0012100E0E5
:10256000002151407A6802B19047761CF6B220787B
:102570008642D9D3BDE8F081DC2100200E4910B598
:102580000A784C780023A24212D0521CD2B20A70B0
:10259000022A00D10B70084A0B78183252F8232017
:1025A00002608868104420F07F408860012010BDE0
:1025B0000360002010BD0000F02100203EB5094D51
:1025C00038CD8DE83800ADF8041007498DF80620A5
:1025D000ADF8020000220978FFF706FA684600F01D
:1025E0008FF83EBD98820200C021002010B503780C
:1025F0000022072B06D2DFE803F00504060C1C2599
:102600002B000A7010BD01220A7002898A8182881B
:1026100014E002220A7002898A818288CA81C26813
:102620008A60007C062802D00020087410BD0120BA
:10263000FBE703220A70C2888A810289CA81C068C6
:10264000886010BD04230B70C0888881CA8110BDCA
:102650000520087010BD000070B5064D0646002428
:1026600055F8241009B130468847641C082CF7D36C
:1026700070BD0000C42D00200EB5002911D0112915
:102680000FD0002200920292ADF8020001910D29B4
:1026900008D0862908D009208DF80000684600F08F
:1026A0003DF80EBD0B20F7E70A20F5E70149096860
:1026B000084700008821002070B5054D064600241B
:1026C000304655F824108847641C022CF8D370BD9E
:1026D000408202002DE9F04107460024064E074DD6
:1026E00005E000BF56F8241038468847641CE87897
:1026F0008442F7DBBDE8F081B42C0020B02100203B
:1027000070B5054D06460024304655F8241088471C
:10271000641C022CF8D370BD608202000149096874
:1027200008470000A48202007FB50446406858B103
:102730000020039020780026384D06285DD2DFE87F
:1027400000F05C05052641690120F2E7A08900F050
:10275000C4F918B9E08904F0DBF980B3A089A0F5C9
:102760004040ADF80200A07B8DF8040020780128DD
:10277000606806D048B104208DF8000060680390BE
:102780001AE00028F8D00320F6E70120F4E7A0893A
:1027900000F0A3F918B9E08904F0BAF978B1A0897A
:1027A000A0F54040ADF80200A07B8DF80400606801
:1027B00030B105208DF80000A06802901AE01CE0FE
:1027C0000220F7E7A08900F088F9B0B1E089A0B94C
:1027D000A089FF21A0F5404080B2ADF802008DF83D
:1027E0000410616881B107208DF800006E70AE7032
:1027F00003F0BCFA684603F091F96878002802D02B
:102800006E7003F0B3FA7FBD06218DF8001003F05F
:102810003BFBEBE708208DF80000EBE79C21002054
:1028200000B5114987B00978890702D4022007B0A2
:1028300000BDA0F57F41FF3911D005218DF80010B2
:1028400001218DF80410ADF80600002211466846FB
:1028500002F0CCFD28B104F063F80020E7E7042083
:10286000E5E70820E3E700001022002000B50E484D
:1028700087B00078800702D4022007B000BD062090
:102880008DF8000000221146684602F0AFFD40B10D
:102890000648017809B10121017304F041F80020D4
:1028A000EBE70820E9E7000010220020C42E0020FA
:1028B00010B58CB014216846FCF7DBFD1D4800788C
:1028C000810703D56846FFF7C7FE30E0C0072ED169
:1028D000012000F027F900F097F901248DF8144049
:1028E00002F020FE0C281BD2DFE800F006100610D4
:1028F0001A1809181A1216120B200CB010BD02205B
:1029000000F010F9012000F0F3F8DBE7002000E010
:1029100003208DF8180003E00220FAE78DF8184034
:102920000022114605A802F061FD03F0F9FF002026
:10293000E3E700001022002038B5040011D06946FA
:1029400004F058F888B10A48BDF8001000EB0110F7
:10295000818941B1A27A32B1491E81810020A072E1
:1029600038BD052038BD062038BD0A2038BD00001E
:10297000A42E00201FB501A9684603F0F7FF04B09C
:1029800010BD07B513460A466946002003F0EEFF66
:102990000EBD07B513460A460021684603F0E6FF60
:1029A0000EBD20B119B100680860002070470520F5
:1029B0007047000038B50D46040015D0A5B1694632
:1029C00004F018F890B10A49BDF80020606801EBE6
:1029D00002129189491C9181286060680C306860FE
:1029E0000120A072002038BD052038BD0A2038BD66
:1029F000A42E002018B10323002205F0BBBA052045
:102A000070470223002205F0B5BA12B1022305F087
:102A1000B1BA052070470000064A5178082906D04F
:102A2000054B43F82100491C5170002070470C20D1
:102A30007047000010220020C42D002038B5044645
:102A40000A480D460078800701D4022038BD54B1F1
:102A50006946284605F0A2FB0028F7D1BDF8001012
:102A60002180658038BD052038BD0000102200207F
:102A700010B504460D480078800701D4022010BD2F
:102A800084B1218802290FD8094800EB011042893E
:102A90006088121A032A07D405F076FB00202080F4
:102AA000608010BD052010BD042010BD1022002044
:102AB000A42E0020826883881A4003689A5C0A70FA
:102AC0008168491C81607047C26883881A40036826
:102AD0009954C168491CC160704743F6FE71A0F566
:102AE0004040884201D80120704700207047000014
:102AF00002490A7882430A707047000010220020C1
:102B000010B504460078182802D1FEF737FF207070
:102B100010BD10B504460078182802D1FEF72EFF2C
:102B2000207010BD02490A7802430A707047000005
:102B30001022002070B5134600220646154686294D
:102B400005D0112901D019B170BD012500E0012285
:102B50000D4C73B16179FEF747FF2A462179304663
:102B6000FEF742FF002261783046FEF73DFF00226B
:102B700003E06178FEF738FF2A4621783046BDE849
:102B80007040FEF731BF0000C4210020F8B50646B2
:102B90001A481F46154600780C46C00708D0304634
:102BA000FFF766FB30B13CB1200507D00620F8BD29
:102BB0000120F8BD0220F8BD0320F8BD3068A04216
:102BC00004D8716804EB0530884201D90520F8BDAE
:102BD0007DB1684603F0F2FD68B100980221C0E9BA
:102BE00000670172210B8181058203F0A9FE00209C
:102BF000F8BD0420F8BD0720F8BD00002822002001
:102C0000084603F0F7BD00002DE9F0472748284C9F
:102C10004FF01021001B0209496910464B1C03D1DB
:102C20004FF0805149690903DFF888A09AF80070D5
:102C3000FB0702D00020BDE8F0870023A14607E093
:102C400009EB0314256815B1646804B1401E5B1CD0
:102C50009342F5D3002422E0002504F0FF0C2B461C
:102C600013E000BF09EB0316D6F80080B8F1000F9F
:102C700004D0D6F80480B8F1000F05D1767BAE42BF
:102C800002D9354603F0FF0C5B1C9342EAD309EBF3
:102C90000C13641C59601D7BA1EB05311960844243
:102CA000DAD347F001018AF80010C3E76C22002054
:102CB0005C2200202822002020B10349496E0160D7
:102CC0000020704703207047D42E00202DE9F843E0
:102CD00007461D48DDF820801E46007815460C4644
:102CE000C0070CD03846FFF7C3FA50B15DB154B1FC
:102CF00045EA0400800708D00620BDE8F8830120DB
:102D0000FBE70220F9E70320F7E73868A04204D880
:102D1000786804EB8601884201D20520EDE77EB198
:102D2000684603F04BFD68B100980121C0E90078C6
:102D30000172C0E90354868203F002FE0020DCE742
:102D40000420DAE70720D8E72822002070B5174AC8
:102D500017490446106E0B7800EB400002EBC000F0
:102D60009D0715D5022C02D0032C1BD102E002F0E6
:102D700013FB17E04A78521CD2B24A70032A11D9C9
:102D800000224A70082104F0D7F803F001FD09E0A1
:102D9000580707D523F004000870526E12B140F0B6
:102DA00002000870BDE8704003F082BDD42E002000
:102DB000282200200EB517A19DF8080020F00F0072
:102DC000401C20F0F00010308DF80800062202A808
:102DD0007CDF08B1FEF7ACF8002000900190502194
:102DE000ADF80400ADF800104FF4C870A021ADF8A4
:102DF0000600ADF8021068467ADF08B1FEF798F8D1
:102E0000064890F9000077DF002801D0FEF790F81F
:102E10000EBD00004D584E303035000028210020F6
:102E200070B508B1012070BD184C0025207B08B199
:102E3000257301E000F0A2F82078082824D2DFE80A
:102E400000F02304080C1023141EBDE8704000F0AD
:102E50001FB8BDE8704000F07FB8BDE8704000F0DA
:102E600061B8BDE8704000F037B808496088203983
:102E700001EB00104068BDE8704002F033BB6560B4
:102E8000BDE8704002F03CBB0F2070BDC42E002096
:102E90001049F0B48A1C00200346A1F120050C184B
:102EA000A67A3EB1A37205EB0014A68916B9A47BDD
:102EB000012C0AD0401C80B20228F0D30B704B804A
:102EC0004B60F0BC41F61D5070471080F0BC00F024
:102ED00043B80000C42E002010B50F4CA4F120010F
:102EE000608801EB0010818961B1052020700B48DA
:102EF0000221002381800168BDE8104001220848BA
:102F0000FFF744BE4168002301220548FFF73EFE5B
:102F10000421217010BD0000C42E002020220020BA
:102F20005C22002038B50A49084803240B6842682F
:102F3000898803EB8101538804700020DB1C00901A
:102F40009BB20448FFF7C2FE38BD0000C42E00202B
:102F5000202200205C220020074910B54888091D66
:102F600003F096FD18B1BDE81040FFF7DBBFBDE8E8
:102F70001040FFF7B1BF0000C42E0020F0B51D487F
:102F80001D490125067802248B88A0F12002082E15
:102F900018D2DFE806F00417171A212C2C16018925
:102FA000491C01810021418080F80C1002EB0113C3
:102FB0001B7843B100234418491C89B2A37202292B
:102FC000F4D30570F0BD0123F5E742685288D21CA6
:102FD0001A448A800470F0BD46880D6802EB061220
:102FE00056680E60556013818C80062100E0072131
:102FF0000170F0BDC42E002020220020F0B5044650
:103000000088384D8DB050281ED0522802D0542848
:1030100028D103E0A08800F0FDFF23E006208DF812
:103020001400A08800F0E6FBADF81600A188ADF80A
:10303000181000F097F9A0880022E978FEF7D4FC78
:1030400005A8FFF733FB0DE0207B01280AD1A07A09
:10305000012807D12089A0F52451023902D1A08886
:1030600001F012F8A878FEF79FFCC8B108A8FEF797
:10307000CFFB142208A96846FCF7E2F900246E464B
:103080000BE000BF06EB4407A978B888FEF798FC70
:1030900010B1B88800F0BEFF641C0098A042F1D8BF
:1030A0006878FEF781FCC8B108A8FEF7B1FB1422CE
:1030B00008A96846FCF7C4F900246E460BE000BF7F
:1030C00006EB44076978B888FEF77AFC10B1B88837
:1030D00000F0DAFF641C0098A042F1D803F06AFF08
:1030E0000DB0F0BD802100203EB504464088ADF80B
:1030F00002002078A8B101281FD0022810D1207921
:1031000000280DD0608800F0B5FAA0F57F41FF39A6
:1031100006D00F490122C978FEF766FC03F04AFF8A
:103120003EBD00208DF800006846FFF7BFFA6088BA
:1031300000F0A0FA00F06EFF3EBD01208DF8000007
:10314000A088ADF804006846FFF7B0FA3EBD000065
:103150008021002010B50446007801280FD1608836
:1031600000F058FF608800F0C3F9002807D0044938
:1031700060880122C978BDE81040FEF735BC10BD5B
:103180008021002010B5104C00202070FEF7F6FBC7
:103190006070FEF7F3FBA070FEF7F0FBE070FEF747
:1031A000EDFB2071617818290BD0A178182908D07F
:1031B000E178182905D0182803D0012020700020BC
:1031C00010BD032010BD0000802100202DE9F0413A
:1031D00086B000F0DFF86846FEF71AFB00246D4663
:1031E0004FF6FF77DFF834800FE000BF05EB4406B1
:1031F000B08800F0FFFAB84205D1B088012298F8F3
:103200000310FEF7F1FB641CA4B20098A042EDD8B5
:1032100003F0D0FE06B0BDE8F08100008021002060
:103220000178072902D1408800F02EBF70470000C6
:1032300010B504460A4841782046FEF7C1FB68B144
:103240000848002101EB410200EB82025288A242B1
:1032500001D1C8B210BD491C0829F3D3FF2010BD0D
:1032600098210020D428002070B5094D094E002473
:1032700004EB440005EB800071784088FEF7A0FB6A
:1032800020B1641C082CF3D3FF2070BDE0B270BDE8
:10329000D42800209821002010B50446024603A13E
:1032A000032001F023FF204610BD00004D584E3092
:1032B00030353A494E464F3A25730D0A000000005A
:1032C00010B51E2001F0AAFC1F2001F0A7FC0E2063
:1032D00001F0A4FC0B2001F0A1FC0D2001F09EFCEC
:1032E00000211E2001F0CEFC00211F2001F0CAFCAD
:1032F00000210E2001F0C6FC00210B2001F0C2FCD1
:103300000121BDE810400D2001F0BCBC2DE9F041C9
:10331000124E07460125BD403068FDF7CBFE002860
:103320000DD10F4C2069284207D1384601F0D8F959
:103330000028E06805D0284304E0A8432061BDE8E8
:10334000F081A843E060206928432061A1683068CB
:10335000BDE8F0410022FDF769BE0000AC8202002A
:10336000DC2100201CB5054AD2E90212CDE9001289
:103370000022694602F09FFA1CBD00002C82020068
:1033800003484FF6FF7181800121017000207047D2
:103390008C21002010B54FF6FF7002F0CBF90349E5
:1033A0008880BDE8104003F031BE00008C21002071
:1033B0002DE9FC41804600F01DFA00240325012779
:1033C000A0F57F412646FF3908D06A46082102F061
:1033D0004DFA18B90198841D8688056832462B4637
:1033E00021464046A9DF042804D0082804D00B2831
:1033F00008D002E0112000E00020002F00D10B20B7
:10340000BDE8FC810027A80701D50125E6E7344384
:10341000F5D0002426460325E0E72DE9FC4180464F
:1034200000F0E8F90746A0F57F40FF380ED00125EF
:103430002A466D1C0026ADB26B460821384602F0C4
:103440003FFA040006D0072C24D024E043F2020007
:10345000BDE8FC81019903230A1D0B604046891DCC
:10346000AADF040004D00C2C08D0052C08D008E0FA
:103470000821384602F0BCFA04460CE0012600E0C0
:1034800000240821384602F09FFA00B10324002EE0
:10349000CED100E00C242046DAE700001FB5044638
:1034A0000078012816D12079012813D1608802AA5A
:1034B000012102F0DBF968B902208DF80000608874
:1034C000ADF802000398094900788DF804000968F6
:1034D00068468847054808388088A0F57F41FF394D
:1034E00003D0BDE81F4003F091BD1FBD9421002013
:1034F0001CB500F07FF96A46012102F0B7F908B166
:1035000000201CBD019800781CBD00002DE9F04191
:10351000084C07464FF6FF7643F2030532466188B2
:103520003846A7DFA84203D16088401C6080F5E7D9
:10353000BDE8F0818C2100208188A1F57F42FF3A0F
:1035400003D0008808B101207047002070473EB5C5
:10355000027802230C46B3EB520F17D1B0F80110DA
:10356000ADF80010C1788DF802108188ADF8041014
:1035700080798DF8060002AA01A92046FDF734FCE7
:10358000032202A96846FBF786FF08B100203EBD72
:1035900001203EBD10B50C46FFF74AFEFF280CD0B7
:1035A000074900EB400001EB800041682160018980
:1035B000A180807AA071002010BD052010BD000000
:1035C000D428002070B5018890B010294FD1011D7A
:1035D00034226846FBF734FF9DF804004FF6FF766F
:1035E000032134466D46B1EB500F2AD002F0FEFAAB
:1035F0009DF8040040080ED001280CD0022820D1EC
:1036000018E00F99281D1131FDF78CFA18B100BF91
:10361000BDF8344015E00EAA0DA9072002F0BEFA4D
:103620000028EED10DE00F99281D491CFFF78FFFF0
:103630000028EDD10EAA0DA9072002F0AFFA00284C
:10364000F1D1BDF80000291D00F08EFEB4420ED06D
:10365000BDF80000214600F07EF8BDF80000ADF88E
:10366000360001208DF834000DA8FFF725F810B0C2
:1036700070BD0000094A002101EB410332F82330FC
:10368000834205D101EB410002EB80004088704786
:10369000491C0829F0D34FF6FF707047D42800204A
:1036A00010B50D4C18200D4A607000204FF6FF71C8
:1036B00000EB400302EB8303401C59800828F7D33A
:1036C000FEF75CF96070182803D0012020700020FC
:1036D00010BD032010BD000098210020D428002038
:1036E00070B504460D46401C00F098F900280ED035
:1036F0001022691C601CFBF7CEFE48B15FF000068B
:1037000005F1110104F11100FDF70CFA304370BD11
:103710000126F5E7018811B9421892780AB1012013
:103720007047491C0829F7D30020704710B50C4694
:103730000346FFF7EFFF00280AD018882188884247
:1037400005D10822A11C981CFBF7A5FE08B100209A
:1037500010BD012010BD02F0EBBB10B5044600788F
:1037600088B0002828D12079072825D1608801AAAF
:10377000072102F07BF800281ED102F037FA1DE085
:103780006088BDF80010884218D004990298FFF7AD
:10379000A7FF98B16088FFF76DFFADF81600002015
:1037A0008DF814006088ADF81800BDF80000ADF881
:1037B0001A0005A8FEF780FF08B010BD03AA6946ED
:1037C000072002F0EBF90028DAD1F5E770B50446DE
:1037D000FFF750FF0546204602F04BF84FF6FF7109
:1037E00004468D4203D014B9284602F0A1FB2046BE
:1037F00070BD000010B5FFF71BFDFF2805D0044980
:1038000000EB400031F8200010BD4FF6FF7010BDF6
:10381000D42800203EB5044602F0E8F90EE00199F4
:1038200020464631FFF782FF28B9019920462A3108
:10383000FFF77CFF10B1BDF808003EBD6A4602A943
:10384000072002F0ABF90028E9D14FF6FF703EBD2A
:103850002DE9F0410F4628B10120FFF749F9012079
:10386000BDE8F081397961B10026264D01290DD0DE
:10387000254C4FF002080229206822D003293CD1B0
:1038800028E001F03DFE0121397134E05FF00000D5
:1038900005EB0011097802290CD0401C80B20228E7
:1038A000F6D30220FFF73EF90120FFF721F941F698
:1038B0001D50D5E705EB0014606801F013FE26707B
:1038C00019E00146002301221048FFF75FF9A4F830
:1038D00004800FE001F006FE0A4922682031498881
:1038E00005EB01114B6823604A60A2880A81A4F8A5
:1038F00004800E703E710028B2D00120FFF7F8F866
:103900000E20ADE7A42E0020202200205C22002003
:10391000F8B51C4C2078002832D0E068002658B159
:103920000025607800282BD1684648DF052805D09F
:1039300030B1FDF7FDFA0AE00125F2E7012606E0C5
:10394000009800F0EFFD216909B1009888479DB902
:103950006078002814D16088ADF800006946A0683E
:1039600061DF052803D020B1FDF7E2FA04E001256C
:1039700002E0D4E902018847002ED2D0002DE6D023
:10398000F8BD00004422002070B50E4604460079C0
:1039900018494FF4A27501EB4010017F2068A1B1D6
:1039A0004FF4887101F03CFC4FF49071206801F0F5
:1039B00037FC4FF49271206801F032FC29462068F0
:1039C00001F02EFC0C49206809E04FF48E7101F0E3
:1039D00016FC2946206801F012FC08492068C0F84E
:1039E0000413206800F0CAFD3146BDE8704000F0C5
:1039F000A9BD00006C2D0020100302008000020011
:103A0000054940880A88904204D34988884201D8F1
:103A10000120704700207047702100200021425C87
:103A20000AB101207047491C1029F8D300207047C3
:103A3000800701D0002070470120704730B58FB05B
:103A400005461C216846FBF714FD00249DF8000084
:103A5000019440F00A008DF800000394049405944A
:103A60000694A87C8DF8360041F22550ADF834005C
:103A70000C949DF83000142120F00F00401C20F021
:103A8000F00010308DF830009DF8310020F00F006C
:103A9000401C20F0F00010308DF831009DF832000D
:103AA00020F00600801C20F019008DF8320007A8D5
:103AB000FBF7DFFC0DA807900CA808900120ADF8DB
:103AC0002400ADF82640ADF828000B942888AB1CE4
:103AD00007AA6946A2DF0FB030BD000000B58BB069
:103AE00013292CD2DFE801F02B0A0C0F1114161940
:103AF0001B222B2B2B2B2B2B282D4500012100E0EB
:103B000000211F200DE0012100E000210B2008E032
:103B1000012100E000210E2003E0002100E001214E
:103B20000D200BB05DF804EB01F0ACB80BB013A0A6
:103B30005DF804EBFCF7BEB81249114808600BB001
:103B400000BD182210496846FBF77AFC0F48069022
:103B50000F494FF48070CDE90701099007230D4A02
:103B600006A96846FDF7D8FA0028E8D0FDF7E0F985
:103B7000E5E70BB05DF804EBFDF7ACBA415400008B
:103B80000050270024250040F48102003425002045
:103B900034260020197A02000348017BC90702D0AD
:103BA0000078FEF7B3B97047302100202DE9F047C7
:103BB000234D81461F46287A0E469046084302D080
:103BC00026B1002104E00520BDE8F0871C49103132
:103BD000484603F067FC0446014600224846FEF7CB
:103BE000A9FF1FB121464846FEF746FD112C0FD014
:103BF00005DC5CB1082C09D00D2C06D106E0862C22
:103C000012D0A4F54050023800D003242046DBE750
:103C10003246E9784846FDF7E7FE4246A97848462D
:103C2000FDF7E2FE0024F1E73246E9784846FDF769
:103C3000DBFE4246A9784846FDF7D6FEE6E70000DF
:103C4000C42100202DE9FC4117460C00064604D093
:103C50002078C00705D0012004E000217EDFBDE808
:103C6000FC8102208DF804003046FFF7C3FD0546B5
:103C7000A0F57F40FF3808D001A800902B463A46B7
:103C80002146304600F021F806E020782146C007A2
:103C9000304603D000F07DF804460BE07EDF0400E0
:103CA0004FF00000009007D0002201232946304643
:103CB00003F008F914B106E00122F6E79DF80410BC
:103CC000304603F029F92046C9E72DE9F04F85B0C9
:103CD00090468946834600259A462E4601AA07212A
:103CE00018460E9F01F0C2FD040008D1029D95F810
:103CF0004400183510F0010601D0029D343558EA11
:103D000004004FF000080FD175B126B905F112007B
:103D1000FFF700FD40B12A4605F11201584685DF44
:103D2000044687F8008021E00CB1052C1ED199F8DB
:103D30000000C0070DD003AB01220721504601F05F
:103D4000BFFD04000AD10721504601F0B3FE040074
:103D500004D1494658467EDF040007D0072150466B
:103D600001F032FE10B1052800D00324CDF8008008
:103D7000387808B1012300E0002344B10022514605
:103D8000584603F09FF805B02046BDE8F08F0122A9
:103D9000F5E7FEB50F46064601F066FD0546A0F5BF
:103DA0007F40FF381ED001AB01220721284601F0D9
:103DB00087FD04000AD10721284601F07BFE04009C
:103DC00004D1394630467EDF040007D0072128465B
:103DD00001F0FAFD10B1052800D003240120009065
:103DE0005CB102E003240020009000220123294658
:103DF000304603F067F82046FEBD0122F6E70000DA
:103E00002DE9F041134D0F46164680462978FDF7FF
:103E1000D7FD00281BD04046FFF7ECFC0446A0F578
:103E20007F40FF3813D069784046FDF7C9FD38B1AF
:103E300033463A4621464046BDE8F04101F0EEBB2C
:103E4000324639464046BDE8F041FEF7B7BBBDE813
:103E5000F0810000C02100202DE9F04385B08146AB
:103E6000FDF7A2FD002820D06846FDF7D1FC002414
:103E70006E4617E006EB44054946A888FDF7A0FD0D
:103E800078B10B4FA888B978FDF79AFD8046A888CD
:103E9000F978FDF795FD0146A88801234246FFF712
:103EA00085FE641C0098A042E4D805B0BDE8F0830C
:103EB000C42100202DE9F043264CA4F110092278FA
:103EC000D9F8048099F80350404694F801C0D9F815
:103ED000086031E002EB42036168521C01EBC30150
:103EE000A378D2B2934200D100220B78022B02D0E9
:103EF000032B21D11DE003464F68194603E0B94268
:103F000003D00B46C969B9B1F9E7A9B18B4205D114
:103F1000C06918B9104E0125B56000260F68C9693F
:103F2000D96149B10B683B440B6005E00174C0697D
:103F300000E000210028F9D19445CBD1C9E9010660
:103F400089F80350404502D00120BDE8F0830020ED
:103F5000FBE7000000220020001001402DE9F041A5
:103F60002A4F0446002607F11005D7F804803EE0EA
:103F700002D02046E4691DE02878696800EB400221
:103F8000401CC0B201EBC2012870AA78904200D157
:103F90002E700A784868012A2BD1027C4ABB8A68B5
:103FA0004260CA6882600A69C26049698161F978C1
:103FB00001B146604368BA68DFF854C0991A21F02D
:103FC0007F41614502D28268114406E0D11A8268BD
:103FD00021F07F418A4202D9511A016000E0066057
:103FE0004660012186600174C66103F059FC002C13
:103FF000BED1287869788842BED17968414502D01F
:104000000120BDE8F0810020FBE70000F021002046
:10401000FFFF7F00FEB504460026A0F57F40FF3875
:104020002FD02046FFF7C4F9050013D00B2D15D073
:10403000112D11D0A5F5405002381CD009208DF863
:1040400000002046FFF7D6FBADF80200ADF80440B3
:1040500002950DE0022002E001260CE003208DF81D
:1040600000002046FFF7C6FBADF80200ADF80440A3
:104070006846FEF71BFB0348324681782046FDF771
:10408000B3FCFEBD80210020FEB504460026FFF7EC
:10409000C4F90546112818D003DCA5B10C2D06D1B2
:1040A00015E0862D27D0A5F5405002381CD00920F8
:1040B0008DF800002046FFF79DFBADF80200ADF83B
:1040C000044002950DE0012002E001260CE00720EB
:1040D0008DF80000ADF804402046FFF78BFBADF8EB
:1040E00002006846FEF7E2FA04483246417820466C
:1040F000FDF77AFCFEBD0820EAE7000080210020E1
:10410000F8B5054600780C46002620420FD1002065
:104110008DF800006846FDF777F82878204202D134
:104120002043287001269DF80000FDF791F83046E5
:10413000F8BD000088B0002001F04AF808B1FCF793
:10414000F7FE0023334A05211846FCF737FF08B174
:10415000FCF7EEFEFFF7B4F82F4A40F6CD410320FE
:10416000FDF788FE08B1FCF7E3FE69460020FDF785
:1041700099FD08B1FCF7DCFE9DF8000002283DD057
:104180005FF00004FDF7DEFC204601F0DFFE1CB10D
:1041900022A1032000F084FFFEF70CFEFCF7DEFDF9
:1041A0002548009069462548FDF780FC08B1FCF7DA
:1041B000BFFE1C216846FBF75CF900204FF420315C
:1041C000CDE900014FF47021029103218DF80C100C
:1041D000ADF80E008DF810001948059019480690AA
:1041E0006846FDF7A7FA08B1FCF7A2FE16A1032066
:1041F00000F056FF0320FDF71BFA06E00124C1E79B
:1042000000F0ACFE0028FBD13EDF0028F8D0FCF720
:104210008FFEF5E76C220020E51D02004D584E3060
:1042200030353A494E464F3A426F6E64732065729C
:1042300061736564210D0A00DD3A02003427002015
:104240007D5302003D2402004D584E3030353A492E
:104250004E464F3A4D584E3030352073746172746B
:1042600065640D0A0000000070B5144682880E4691
:1042700005462088111D0144921C994201D8FE2A4E
:1042800001D90C2070BD521C32542088FF21401CE3
:1042900080B2208031542088401C80B22080811957
:1042A000288803F046FD2188084480B22080AA882F
:1042B00042B1A96841B13044FBF7C2F82088A9880F
:1042C00008442080002070BD072070BDF8B50E4660
:1042D000017814460546012901D1687830B120885B
:1042E000821C9A422DD8012902D006E00720F8BD91
:1042F00069780144891C994223D8181A801E87B214
:10430000ADF800702188B01C084469467DDF0028A4
:10431000EDD12878022805D1BDF80010B94201D8A6
:1043200009210AE00821012805D16878B84202D89D
:10433000ADF8000001E0ADF80070BDF80000FE2807
:1043400001D90C20F8BD2288401CB0542088401CA4
:1043500080B2208031542088401C2080BDF800109D
:10436000084420800020F8BD70B505460C004FF0D1
:10437000FF0020D04FF6FF76B5421CD00E48012238
:1043800041782846FDF730FB2846FEF751FFFF280D
:1043900003D1FEF769FFFF280DD0084B00EB400268
:1043A00003EB82014D8023F8226022684A60A288D4
:1043B0000A81A2798A7270BD98210020D428002039
:1043C00070B54FF6FF750E46A84201D1002000E0FF
:1043D000401C84B208E02146304601F0FAFF08B1E3
:1043E000204670BD641CA4B2FF2CF4D9284670BDD1
:1043F000C20800F007030120895C9840084070471C
:1044000000F180400068002800D00120704708B506
:1044100000F18040002101600068009008BD0000AC
:1044200000283ED01F49204A096800BF00BF00BFD6
:1044300000BF00BF00BF00BF00BF91422FD000BF30
:1044400000BF00BF00BF00BF00BF00BF00BF00BF74
:1044500000BF00BF00BF00BF00BF00BF00BF00BF64
:1044600000BF00BF00BF00BF00BF00BF00BF00BF54
:1044700000BF00BF00BF00BF00BF00BF00BF00BF44
:1044800000BF00BF00BF00BF00BF00BF00BF00BF34
:1044900000BF00BF00BF00BF00BF00BF00BF0138AA
:1044A000C3D17047582200200024F40070B50F4C8F
:1044B0000025207808B1852516E00021A160616003
:1044C0002161E1604FF0E020D0F80001012610F0FA
:1044D000010F03D10721002000F034F803F080F928
:1044E00008B9034806602670284670BD002D0020DC
:1044F0001805004038B500208DF800006846FCF72C
:1045000083FE074C207808B9FFF7D0FFE068401C15
:10451000E0600120A0709DF80000FCF799FE38BD16
:10452000002D0020002801D1FDF7DABE704700F011
:104530001F02012191404009800000F1E020C0F8F5
:10454000801170474907090E002806DA00F00F02B3
:1045500002F1E02282F8141D03E000F1E02282F86B
:10456000001400F01F02012191404009800000F179
:10457000E020C0F88012C0F800117047000B40B274
:10458000704700002DE9F0418846054601F01CFD0A
:10459000234E002828461AD0FDF762FE304490F8DA
:1045A00048008009032802D001280ED007E04FF010
:1045B000A040D0F81005E84010F0010F05D003210D
:1045C0002846BDE8F04100F04CBB0221F8E701F0BD
:1045D00007FD002822D02846FDF742FE04464FF48E
:1045E000807000EB84000F4F81B207EB8400D0F89D
:1045F000102542F00102C0F81025084600F06CFBBF
:10460000B8F1000F0AD02846FDF72AFE56F8200020
:10461000002803D00120A040C7F80403BDE8F081C2
:10462000142D0020006000402DE9FC41DFF8A4803B
:10463000044608EB0400002790F930001346C01729
:104640000E46401C01D0082741E0F278194620466A
:10465000FDF7E2FD0546401C38D0B07850B14FF070
:10466000A04000EB8400D0F8001721F00201C0F850
:10467000001707E000217378204600910A46019157
:1046800000F096FAF078C0B11348317800EB85005D
:10469000D0F81025114B1A40C0F810254FF4F852ED
:1046A0004FF4403302EA042203EA01410A43D0F8FE
:1046B00010150A43C0F8102509E008EB0500327810
:1046C00010F8481F41EA8211017000E004273846C3
:1046D000BDE8FC81142D002000600040FFE0FCFFDD
:1046E0004FF0A041D1F81015C14011F0010000D0E9
:1046F0000120704770B5144D95F8540008B108209A
:1047000070BD0020411E2A18401CC0B282F8301033
:104710002028F8D300242046FDF770FD641CE4B285
:104720000C2CF8D307210620FFF70CFF4FF4BE70C6
:1047300000F0D2FA05494FF00040C1F8040301200F
:1047400085F85400002070BD142D0020006000404A
:10475000034890F85400002800D001207047000062
:10476000142D00200121B1EB507F01D101207047B1
:10477000002070472DE9F04105460079164F90461C
:1047800007EB40140E46E07E10B10820BDE8F08132
:10479000707F20772846FCF775FD5FEA08006060AF
:1047A0003169216003D0317F2846FFF7EDF8287981
:1047B00007EB4010007F0028286801D0082100E0A6
:1047C0000421C0F800150020E0752076A0750121B5
:1047D000E176A076DAE700006C2D00202DE9F041AB
:1047E00005460079284E904606EB40140F46207F80
:1047F00018B10846FFF7B6FF80B1626800234FF496
:1048000004704FF4017172B12A7906EB4212127FE3
:10481000002A2A6805D0C2F8080304E01020BDE889
:10482000F081C2F80813E27DB2B1227E7AB16268EB
:104830005AB12A7906EB4212127F1AB12968C1F8DF
:10484000040302E02868C0F804131120E7E7276199
:10485000012384F8188005E084F817800020E760C1
:10486000607620762879424606EB40103946007F74
:104870000028284603D0BDE8F04100F073B8BDE839
:10488000F04100F01BB800006C2D002070B504460C
:104890000079094D05EB4010017F00290AD1807E87
:1048A000002807D1204602F0B6F92179012005EB56
:1048B0004111887670BD00006C2D00202DE9F05F5D
:1048C00004460079264901EB4015A87E184302D121
:1048D000204602F0A0F968680028206806D04FF44E
:1048E0000171C0F804130020BDE8F09F4FF4A276D8
:1048F000314600F084FCB1464FF4927A4FF4847B49
:104900005146206800F076FC06465946206800F0C3
:1049100071FC80464946206800F06CFC074648EA76
:1049200007003043ECD056EA070007D1294620683B
:1049300002F04CF9E87D697E8842E1D80020E875F4
:104940000EB10320D0E70FB10F20CDE7A97E0120E3
:104950000029216801D00860C5E74860C3E700006E
:104960006C2D00202DE9F05F894604464FF48875D0
:104970009A46904600260068294600F051FC4FF404
:10498000A2773946206800F04BFC2068C0F83495C7
:10499000C0F838852068BAF1000F14D0D0F80012A2
:1049A00041F02001C0F800122179DFF8648008EBA3
:1049B0004110406850B120684FF40471C0F80413EE
:1049C0003046BDE8F09F01210160EDE7AA46B946F7
:1049D0004FF4927B5146206800F01DFC0746494683
:1049E000206800F018FC05465946206800F013FCCA
:1049F000014647EA05000843ECD02379002208EB82
:104A00004310C27501B10326002DD9D00F26D7E778
:104A10006C2D00202DE9F047054600793F4E904669
:104A200006EB40140F46207F18B10846FFF79AFEA8
:104A300030B1284600F074F820B11120BDE8F087AD
:104A40001020FBE784F81680A7600027A78228794A
:104A50004FF0010806EB40143E46207F00282868EE
:104A600025D04FF49079494600F0DAFB4FF4AC7A48
:104A70005146286800F0D4FB2868A17DA268C0F8E0
:104A80004425C0F848152868C0F808806068F0B967
:104A90004946286800F0BFFB80465146286800F070
:104AA000BAFB58EA0001F3D058BBA7750FE04FF4EA
:104AB0008E7A514600F0A3FB2868C0F80880214692
:104AC000286802F08BFF61684FF4807089B130462E
:104AD000B4E75146286800F08DFB10B9A08A48451C
:104AE000F7D1A08A484505D02146286802F076FF14
:104AF00000E08146A08AA17D8842EAD3A08A484589
:104B000001D10F26D1E75146286800F073FB002839
:104B1000F9D02868C0F80C80C7E700006C2D002091
:104B20000079044901EB4010807D002800D001206D
:104B3000704700006C2D002070B5044600791149C3
:104B4000002601EB401520682A7FC0F800656868E0
:104B500088B1207901EB4010007F0028206801D047
:104B6000094901E008498C39C0F808132068FFF7AB
:104B700005FDFFF7DCFC204601F03EFAEE766E60A4
:104B800070BD00006C2D00201003020070B541EADA
:104B90004201DDE904564FF0A04441EA830141EAB5
:104BA000052104EB800041EA0641C0F8001770BD02
:104BB00070B541EA4201DDE904564FF0A04441EAF4
:104BC000830141EA052104EB800041EA0641C0F877
:104BD000001770BD70B541EA4201DDE904564FF09F
:104BE000A04441EA830141EA052104EB800041EA47
:104BF0000641C0F8001770BD1CB5002100910B469E
:104C000001220191FFF7E6FF1CBD1CB500220B46F7
:104C1000009211460192FFF7DDFF1CBD4FF0A0424C
:104C200002EB80000321C0F8001770471CB500217B
:104C300000910B46012201911146FFF7CBFF1CBDED
:104C40004FF0A04202EB8000D0F8002722F440325F
:104C5000C0F80027D0F8002742EA0141C0F8001749
:104C600070474FF0A04202EB8000D0F8002722F4FA
:104C70004032C0F80027D0F8002742EA0141C0F8CE
:104C80000017704701224FF0A043824011B1C3F8D2
:104C900008257047C3F80C25704701224FF0A04348
:104CA000824011B1C3F808257047C3F80C2570473E
:104CB00018B5084B6C4601441B68009306E000BF22
:104CC00054F82030D3F81035401C08C28142F7D880
:104CD00018BD0000A8820200034908B5084400215D
:104CE00001600068009008BD006000400249405823
:104CF000012800D000207047006000400048704745
:104D0000294D020070B5074D0446287810B1687827
:104D1000844204D0FBF700F8012028706C7000205A
:104D200070BD00003C2200202DE9F04FC1B01746B5
:104D30004FF00002080040924D994B9A1E4602EB3C
:104D4000010A01D00A2100E0002188466D46AEB973
:104D5000294640AA02F028FE00286FD03846FAF70C
:104D600093FBC22800D9C22004464098224628441A
:104D70003946FAF765FB4098204440904FF0200BED
:104D8000409901EB080231320DEB01040DEB0205F5
:104D9000002002E004F801BB401C4045FAD3002784
:104DA000564508D304F801BB04F801BB04F801BB65
