:020000040001F9
:10F000005850002015F401001DF401001FF4010008
:10F0100021F4010023F4010025F4010000000000A8
:10F0200000000000000000000000000027F40100C4
:10F0300029F40100000000002BF401002DF4010070
:10F04000D1F701002FF4010011FB01002FF40100A2
:10F050002FF401002FF40100CDF501002FF4010081
:10F060002FF401002FF401002FF401002FF4010010
:10F070002FF401002FF401002FF401002FF4010000
:10F080002FF4010029F801002FF401002FF40100F2
:10F090004DF801002FF4010051F801002FF4010098
:10F0A0002FF401002FF401002FF401002FF40100D0
:10F0B0002FF401002FF40100000000000000000008
:10F0C0002FF401002FF401002FF401002FF40100B0
:10F0D0002FF401002FF401002FF4010000000000C4
:10F0E0000000000000000000000000000000000020
:10F0F0000000000000000000000000000000000010
:10F1000000000000000000000000000000000000FF
:10F1100000000000000000000000000000000000EF
:10F40000DFF80CD000F086F800480047993302007E
:10F41000585000200648804706480047FEE7FEE7B0
:10F42000FEE7FEE7FEE7FEE7FEE7FEE7FEE7FEE7B4
:10F4300075F8010001F4010000487047F072020005
:10F4400040EA01039B0703D009E008C9121F08C066
:10F45000042AFAD203E011F8013B00F8013B521EE6
:10F46000F9D27047D2B201E000F8012B491EFBD25D
:10F4700070470022F6E710B513460A4604461946BF
:10F48000FFF7F0FF204610BD421C10F8011B0029B9
:10F49000FBD1801A704730B504460020034600E0D7
:10F4A0005B1C934203D2E05CCD5C401BF8D030BDC6
:10F4B0002DE9F05F0546002092469B4688460646A9
:10F4C000814640241BE0284641464746224600F03C
:10F4D00042F853465A46C01A914110D31146184675
:10F4E000224600F029F82D1A67EB01084F46224604
:10F4F0000120002100F020F817EB00094E41201EEA
:10F50000A4F10104DFDC484631462A464346BDE803
:10F51000F09F0000064C074D06E0E06840F0010354
:10F5200094E8070098471034AC42F6D3FFF76CFF1D
:10F530008C730200AC730200202A04DB203A00FA2C
:10F5400002F1002070479140C2F1200320FA03F33A
:10F55000194390407047202A04DB203A21FA02F038
:10F560000021704721FA02F3D040C2F120029140FD
:10F5700008431946704770B58C1810F8015B15F0F8
:10F58000070301D110F8013B2A1106D110F8012B15
:10F5900003E010F8016B01F8016B5B1EF9D12B073A
:10F5A00005D40023521E0DD401F8013BFAE710F8F0
:10F5B000013BCB1A921C03E013F8015B01F8015BDD
:10F5C000521EF9D5A142D8D3002070BD2DE9F047D5
:10F5D00000268CB0DFF86091B0464FF480750124AE
:10F5E00037460696284604F081FB38B1D9F8040363
:10F5F000204203D0284604F06FFB26432D1D6400F3
:10F600007F1CADB2082FEDD34FF4BE74204604F03A
:10F610006DFB48B1204604F05FFB46F0004606AAA9
:10F620000121002004F044FB444D16F0FF0F15D0DB
:10F630000127002437420DD009EB8401D1F81005D1
:10F64000D1F81015C0F3042055F82420C1F301416E
:10F6500002B190477F00641C082CEBD3002E67DAC0
:10F660004FF0FF30CDE9088000263446281910F805
:10F67000507F90F9000027F0C008401C44D009A931
:10F68000404603F0E3FF58B34FEA9719404601F0B4
:10F69000B7FF55F820701FB1B9F1030F03D00FE089
:10F6A000B9F1030F30D108A84FEAD80208F00703D8
:10F6B000815C4FF0010C0CFA03FC41EA0C0181540F
:10F6C0004FF0A04101EB8800D0F8000706A9C0F375
:10F6D000014A404603F0BAFF18B1BAF1020F03D055
:10F6E00012E0BAF1030F0FD1B9F1030F08D1BAF14B
:10F6F000020F1BD00221404604F0BDFA761CF6B280
:10F7000017B149464046B847641C042CAED3002EBE
:10F710000ED06A460121002004F0CAFA069900982A
:10F72000884205D00690089809909DE70321E2E7FA
:10F730000CB0BDE8F08700000060004018290020F0
:10F7400000F01F02012191404009800000F1E020FB
:10F75000C0F88012704700F01F020121914040095B
:10F76000800000F1E020C0F88011704700F01F0217
:10F77000012191404009800000F1E020C0F8001113
:10F78000704700F01F02012191404009800000F104
:10F79000E020C0F80011704700F01F0201219140E5
:10F7A0004009800000F1E020C0F8001270474907CE
:10F7B000090E002806DA00F00F0000F1E02080F8C2
:10F7C000141D704700F1E02080F80014704700001D
:10F7D0002DE9F0414FF48077384603F03FFF0124D4
:10F7E000104EA50748B1384603F03FFF0120C5F889
:10F7F00008037470002001F043FF4FF4827738460D
:10F8000003F02CFF00280BD0384603F02EFF022017
:10F81000C5F80803B470BDE8F041012001F030BF25
:10F82000BDE8F0810429002007480021C0F84011FC
:10F83000C0F84411C0F84811C0F84C11C0F80011CC
:10F84000C0F8041107F092B80010014007F006B8A4
:10F85000074810B5406830B18047002807D0BDE8A0
:10F86000104000F0D9BDBDE8104003F0D3B910BD81
:10F870003C220020F0B598480023021D01780125A4
:10F88000101D4FF08056062907D11478240704D1A3
:10F890000478C4F30314032C02D0062904D00FE02B
:10F8A0008F4F8E4C7C670EE01478240708D10478C3
:10F8B000C4F30314032C06D0042C04D0052C02D06E
:10F8C000062907D00EE0D6F84442864FC4F34234EE
:10F8D0003C6002E01478240704D10478C4F30314D4
:10F8E000032C02D0062906D011E07F4C276827F0B0
:10F8F000807727600EE01478240708D10478C4F3D9
:10F900000314032C06D0042C04D0052C02D00629A5
:10F910000AD011E04FF08044C4F80C31C4F8103123
:10F92000704C241F236002E01478240704D104786B
:10F93000C4F30314032C02D0062905D00CE0694F50
:10F94000032464373C600AE01478240704D1047867
:10F95000C4F30314032C02D006290DD014E0634F26
:10F9600005243C60614C78342560604C0834236089
:10F970003F243F1D3C6002E01478240704D1047842
:10F98000C4F30314052C02D0062957D068E0584967
:10F990000968584A11605649091D0968121D11600D
:10F9A000534908310968121D116051490C31096829
:10F9B000121D11604E4910310968121D11604C4929
:10F9C00014310968121D1160494918310968494A02
:10F9D0002032116046491C310968121D11604449EA
:10F9E00020310968121D1160414924310968121D36
:10F9F00011603F4928310968121D11603C492C31C2
:10FA00000968121D11603A4930310968394A40329B
:10FA10001160374934310968121D11603449383199
:10FA20000968121D116032493C310968121D1160CC
:10FA30002F4940310968121D116002E01178090751
:10FA40000ED10078C0F30310032803D0042801D09E
:10FA5000052805D1D6F85802274900F04F00086064
:10FA600021487438016841F470010160BFF34F8F81
:10FA7000BFF36F8F4FF01021D1F80002002803DB95
:10FA8000D1F80402002822DA1C4A15601C480468D8
:10FA9000002CFCD01524C1F800420568002DFCD0D4
:10FAA000C1F8044201680029FCD0136001680029F4
:10FAB000FCD0BFF34F8F0C48F0380168114A01F4B5
:10FAC000E06111430160BFF34F8F00BFFDE70F49B5
:10FAD0000D480860F0BD0000E00F00F00DF0ADBA79
:10FAE00000C007403C050040FCED00E0105600401F
:10FAF0000404001020C50040E40E004004E501406D
:10FB000000E401400400FA050090D00350220020D8
:10FB10000448017F04480029024901D007F037B8A2
:10FB200006F0A6BF70290020002000400FB41CB5CD
:10FB30000246002007AC00290BD0491ECDE9002168
:10FB4000054B6A462146069800F02AF8009A0021E3
:10FB500011701CBC5DF814FB0300020002E008C831
:10FB6000121F08C1002AFAD170477047002001E037
:10FB700001C1121F002AFBD170470000012120287B
:10FB800003DA81400548014003E0402802DA2038CA
:10FB9000814009B10120704700207047FC06FFBC7E
:10FBA0002DE9FF4F8DB00F460546002606E02528BB
:10FBB0000BD0DDE90F1290476D1C761C28780028C9
:10FBC000F5D111B03046BDE8F08F0024A246A14621
:10FBD0000122EC4900E0044315F8013F203B02FA02
:10FBE00003F00842F7D128782A2810D06FF02F02AE
:10FBF0002878A0F13001092914D80AEB8A0102EB18
:10FC0000410144F0020400EB010A6D1CF0E701CF52
:10FC10005FEA000A03D544F40054CAF1000A44F034
:10FC200002046D1C28782E2817D115F8010F44F016
:10FC300004042A280ED06FF02F022878A0F130019A
:10FC400009290AD809EB890102EB410100EB0109FE
:10FC50006D1CF2E757F8049B6D1C28786C280FD0B8
:10FC600006DC4C2817D068280DD06A2814D104E08F
:10FC7000742810D07A280FD10DE044F400140AE063
:10FC800044F4801401E044F440146978814202D1C4
:10FC900004F580146D1C6D1C2A786E2A1FD00CDCB4
:10FCA000632A31D004DC002A8BD0582A11D1A3E07A
:10FCB000642A68D0692A0CD165E0732A2ED004DC4E
:10FCC0006F2A73D0702A04D19BE0752A6FD0782AEE
:10FCD0006ED01046DDE90F129047761C50E1C4F358
:10FCE0000250022806D0032809D0042801CF09D0E9
:10FCF000066045E101CFF117C0E9006140E101CFA5
:10FD000006803DE106703BE117F8040B8DF800001A
:10FD100000208DF80100EB46012003E057F804BBFA
:10FD20004FF0FF3061074FF0000102D40DE008F101
:10FD30000101884649450FDA8045F8DB1BF80810B9
:10FD40000029F4D108E008F1010188468142FADB7C
:10FD50001BF808100029F6D1DDE90F23AAEB0800F3
:10FD60008146214600F036F9304400EB080604E0F5
:10FD7000DDE90F121BF8010B9047B8F10108F7D22B
:10FD800021464846F7E00A21C4F302534FF0000B26
:10FD90000891022B04D001CFC117032B09D00AE030
:10FDA000FF1D27F00707F7E8020108E032E01FE037
:10FDB00020E000B2C117042B01D140B2C117031ECD
:10FDC00071F1000307DA4FF0000CD0EB0C006CEB84
:10FDD00001012D2302E0230504D52B238DF82430C7
:10FDE000012303E0E30701D02023F7E7984658E01A
:10FDF0000A2110E010210EE010204FF0000B0890B7
:10FE00000CE010214FF0000B44F004044FF00809FF
:10FE1000089103E008214FF0000B0891C4F302534E
:10FE2000022B04D001CF0021032B06D006E0FF1DDA
:10FE300027F00707F7E8020103E080B2042B00D1A6
:10FE4000C0B24FF0000823072BD5702A07D0DDF889
:10FE500020C08CF0100C5CEA0B0C05D00EE04023A7
:10FE60008DF82430012308E050EA010306D0302346
:10FE70008DF824308DF8252002239846DDF820C027
:10FE80008CF0080C5CEA0B0C0BD150EA010301D199
:10FE9000630706D530238DF824304FF00108A9F10F
:10FEA0000109582A04D038A20B9208AA0A920BE042
:10FEB0003AA2F9E75B46089AFFF7FAFA0B9B9B5CBC
:10FEC0000A9A521E0A92137050EA0102F2D10A985D
:10FED000ADEB000000F1200B600702D524F4803464
:10FEE00001E04FF00109D94502DDA9EB0B0000E06C
:10FEF000002000EB0B0141440890AAEB010AE0034B
:10FF000006D4DDE90F232146504600F063F806448D
:10FF10004FF0000908E009A911F80900DDE90F1206
:10FF2000904709F10109761CC145F4DBE0030CD5CB
:10FF3000DDE90F232146504600F04CF8064404E06A
:10FF4000DDE90F1230209047761C0899481E089072
:10FF50000029F5DC08E00A980A990078491C0A9102
:10FF6000DDE90F129047761CBBF10001ABF1010BEC
:10FF7000F1DC21465046DDE90F2300F019F8064474
:10FF80006D1C1BE609280100303132333435363719
:10FF900038396162636465660000000030313233D5
:10FFA0003435363738394142434445460000000075
:10FFB0002DE9F041044600251E461746880404D466
:10FFC00005E039462020B0476D1C641EF9D528464F
:10FFD000BDE8F0812DE9F041044600251E4690461B
:10FFE000C80301D5302700E02027880404D505E0A8
:10FFF00041463846B0476D1C641EF9D52846BDE819
:020000040002F8
:10000000F0814A68002A06D00A68531C0B60107001
:100010004868401E4860704710B560B159B1027819
:100020000B785208B2EB530F05D10622401C491C35
:10003000FFF731FA08B1002010BD012010BD2DE9F5
:10004000FC47002517880646158090F82D001446B9
:10005000894630B13A462146484600F08DFE0500FB
:1000600009D1B0784FF00C0A18B32088C846001D9B
:10007000B84202D95046BDE8FC87684679DF0028BF
:10008000F9D12088032108F8001020881921401C8C
:1000900080B2208008F800102088401C80B22080A8
:1000A00000EB0801BDF8000006F0E9FD21880844D6
:1000B0002080F0780222C8B1218896F9033001F13E
:1000C000030C4846BC45D5D8425421884FF0010C5A
:1000D000491C89B2218000F801C02188491C89B2DD
:1000E000218009F801302088401C20807068B8B158
:1000F000218890F9003001F1030C4846BC45B9D87D
:10010000425421880A22491C89B221804254218804
:10011000491C89B2218009F801302088401C2080C8
:10012000308950B1CDE900474B460622022106F145
:10013000080006F0FDFD05009DD1308A50B1CDE9E3
:1001400000474B460722032106F1100006F0F0FDA0
:10015000050090D1308B50B1CDE900474B461522B8
:10016000142106F1180006F0E3FD050083D1306A82
:1001700030B13B462246494601F0ECFA0500DBD19E
:10018000706A30B13B462246494603F09BF90500B0
:10019000D2D196F82C0038B13B462246494630462B
:1001A00005F0C4FF0500C7D1307838B13B46224680
:1001B0004946304603F0B8F90500BDD128465AE754
:1001C000134A0021535C0BB1012203E0491C0629AC
:1001D000F8D300220F49012806D0022809D00328AD
:1001E0000CD0042812D10DE0487810B10AB10120DA
:1001F0007047887810B10AB102207047C87808B1FA
:1002000003207047087908B1042070470020704728
:1002100065210020B423002010B501220221002016
:1002200000F0CAFF08B1072810D1072202210120DF
:1002300000F0C2FF08B1072808D100210A220846B1
:1002400000F0BAFF08B1072800D1002010BD00005F
:1002500010B51F49ACB0D1E90001CDE92A01592000
:10026000ADF89C002AA829900720ADF8A0003C21F9
:1002700001A8FFF7FEF802208DF8040001248DF894
:10028000064006208DF807001248029027A80A9021
:100290003C2110A8FFF7EDF80E48ADF85040001DC6
:1002A000159020211FA8FFF7E4F84020239000209C
:1002B0008DF87F4024900090074B1FAA10A901A839
:1002C00000F072FA002801D000F0A6F82CB010BDA2
:1002D0008C210200282100209942020070B58CB0C8
:1002E00015460E4600236C46C3F10F01415CE154F4
:1002F0005B1C102BF8D30D2104F11000FFF7B9F8A7
:100300000020C0F10F02315C2244401C117403280C
:10031000F7D3684643DF0020C0F10F01214491F874
:1003200020102954401C0328F6D30CB070BD0220C5
:1003300000F006BE70B50024064D06E06868012195
:1003400010F8340003F04CFA641C28788442F5D38A
:10035000002070BDDC210020F8B515460C4606468D
:10036000052A01D20720F8BD03F020FB18B903F0DD
:10037000EFFA0028F7D1104900204E600C70C1E957
:1003800002500E4D08610DE006EBC4006968009153
:1003900081788DF801100078094A694603F072FAF5
:1003A0000028E0D1641EE4B2EED2BDE8F840054A70
:1003B0000021024800F03CB8DC210020FC71020062
:1003C00011260200BD1802000BA1012003F09EFEC1
:1003D00003F0F6FD03F0F8FD0028FBD1BFF34F8FCB
:1003E0000B4801680B4A01F4E06111430160BFF35F
:1003F0004F8F00BFFDE700004150505F4552524F04
:10040000523A4552524F523A466174616C0D0A009D
:100410000CED00E00400FA050EB500210091CDE9D5
:1004200001106A4644F20100FFF7CEFF0EBD000046
:10043000074B5B6823B12AB120B10068037C1BB174
:1004400008207047072070474174426100207047C0
:10045000002200202DE9F0470746984614468946B9
:1004600090074FF0000526D12CB305F0C1FB134EC9
:1004700006F11000C6F80C800570457080F80290F7
:1004800044607560357075701420FFF759F90721C5
:100490001420FFF78CF91420FFF768F9084807606B
:1004A00007211120FFF783F90548001F0068B0609D
:1004B0000020BDE8F0870720FBE70000F0210020C6
:1004C000081501402DE9FC47DFF87890D9F8043091
:1004D00073B368B3052902D20720BDE8FC874369DE
:1004E00033B3437C012B25D00027044600258846E2
:1004F00016468DF80050684600F038F801A806F05E
:10050000FFFBC8B1012101700F4944600968C0E9CF
:100510000218C0E904769DF8040089F801009DF8EE
:10052000000000F047F81420FFF736F92846D4E71A
:100530000820D2E70F46D8E704259DF8000000F018
:1005400039F8F3E700220020041501400649496804
:1005500039B130B1416921B100210174022106F0A5
:10056000E1B90820704700000022002030B5EFF309
:10057000108172B60D4A9468012324B103700029DA
:1005800000D162B630BD93604FF0E023D3F88051C4
:10059000074C25401560C3F88041D3F8844154606E
:1005A0005A17C3F8842100220270E8E7B02900201E
:1005B000FC06FFBC0B498A68002A11D000280FD125
:1005C000EFF3108072B60B684FF0E022C2F80031F2
:1005D0004B68C2F8043100228A60002800D162B65C
:1005E00070470000B02900202DE9F0410646086858
:1005F0000C46411C4FF0A0474FF0010506D005FA0C
:1006000000F1C7F80815206803F01AFB6068411C68
:1006100002D0002103F00BFB3079204901EB4010A0
:10062000A169007F00283068C0F8241525D0607DBE
:10063000227D31681043C1F86C05D4E9001230689E
:10064000C0F80C15C0F8142524E0A068411C02D0A5
:10065000002103F0ECFAE068411C05D08540C7F8A2
:100660000855E06803F0ECFAD4E902123068C0F8EB
:100670000825C0F81015BDE8F081607D217D326845
:100680000843C2F86C05D4E900123068C0F814259C
:10069000C0F80C15207D0128D7D0ECE77029002088
:1006A0002DE9F043044687B0008800F001FB814645
:1006B000208802F021FA214F8046667A20880022A5
:1006C0003978A56800F042FBB9F1000F33D06079AA
:1006D000400711D50721404604F0BCF9A0B108211C
:1006E0008DF80C1021880590ADF80E10ADF8108033
:1006F00003A801F0D5F907E02088B97800F012FBD3
:1007000010B1404602F0E4F903208DF80000208883
:10071000ADF802006079C0F380008DF80400A07984
:10072000C0F380008DF805008DF806508DF8076045
:10073000684601F0B5F907B0BDE8F083C02100209C
:10074000F0B50C4693B01F210726ADF80010ADF8A8
:100750000410002750B1C17849070DD56A4602A997
:10076000FFF76DFC002808D102AD02E00025ADF8CE
:1007700000706CB1E07810B1304613B0F0BD01AA42
:100780000AA92046FFF75BFC0028F6D10AAA02E07E
:100790000022ADF80470BDF80400C3B2BDF800003B
:1007A000C1B2284672DFE8E72DE9F0471F46DDF8C1
:1007B000208013468946040042D0EBB3404D01200F
:1007C00000262870EE70202219463E48FEF738FEBB
:1007D000C5E904784FF6FF702881AE613948AE83D1
:1007E000AE773C212030FEF744FE36482178203099
:1007F0000170A1788170E178C170617841703149F0
:10080000D4E90423C1E90C23D4E90223C1E90A2372
:10081000D4E90623C1E90E23616AE1B100F13C018C
:1008200000F1480241628A60636A1B880B80616A3A
:10083000436A8988998000E002E00021436A07E06A
:100840000E20BDE8F087656AAD686D5C5554491CA3
:100850009D888D42F7D8A16AD9B11A4A9432A2F183
:100860000C018A608162A36A9B888B80A16A836A7B
:10087000098819800021836A04E0A56AAD686D5C6F
:100880005554491C9D888D42F7D894F82C1080F857
:100890002C10216A49B10A490A310162226A528840
:1008A0004A80216A026A09881180616801B1416049
:1008B0004946BDE8F04703482030FFF741BF00003C
:1008C0004C210020B423002010B50188144C1029BD
:1008D00018D011291CD01B2919D1007A002816D153
:1008E000E0780521401CB0FBF1F201FB120000BFD3
:1008F00000F050F800280AD06169002907D0BDE84F
:1009000010400847C17B012901D18088208110BD9A
:1009100000216171808821898842F8D10120E7E7B0
:100920004C21002010B5022801D0032810D1094C19
:10093000607800280CD000206070E07800F02AF881
:10094000002805D06169002902D0BDE810400847A1
:1009500010BD00004C21002010B574DF0B4C0120AD
:100960000B4960710020E0710620C8700021084822
:10097000FFF7E6FE002807D1E07800F00BF810B191
:10098000616901B18847002010BD00004C210020A2
:10099000D42300202DE9F0413D4C804686B02078DC
:1009A00048B184F8038004A801F042FB04980126B2
:1009B00028B1667067E0082006B0BDE8F081002528
:1009C000A561344FA583A577787810B1E078012828
:1009D00006D0B87858B1E078012801D0022806D1B5
:1009E000216919B126710820884700E02571404629
:1009F000FFF7E6FBE070216939B1032801D0042834
:100A000003D1387808B1607990B1A571009502954D
:100A1000019503958DF800508DF808501C48E17839
:100A20001830052925D2DFE801F03008111D21001A
:100A3000E571A67107208847E8E7A67001908DF858
:100A40000060ADF80C50ADF80A5014E00221A1701E
:100A500001908DF80060B889ADF80C003889ADF8C8
:100A60000A0008E0684605F0A5FB02E0684605F0CC
:100A7000C5FBE07818B1684673DF00289CD1216976
:100A800009B1A0788847002096E7A570F7E7000035
:100A90004C210020B423002070B5054601461C22DD
:100AA0000F48FEF7CDFC0F4C00262670286830B1A9
:100AB000016861604068A060201D7ADF02E009489B
:100AC000001D7BDF00280AD14FF6FF706080667042
:100AD000BDE87040044A00210448FFF7A9BC70BD7E
:100AE000882400206C210020896C020074710200AF
:100AF00070B51E4C068800231B49E289102E15D0C4
:100B00001B4D112E1CD0122E29D0502E17D130F88B
:100B1000061F914213D14189022910D10C3000F0F7
:100B2000BFF988B1BDE8704000F05ABE84884C809F
:100B30000469CC60406908614B70002AF2D070BD36
:100B40004FF6FF7048804B702868FFF7FFFC0028C5
:100B5000F5D0A1690029F2D0BDE87040084782684D
:100B6000CA60C0680861DDE76C210020882400208D
:100B70007471020002490A7D091D05F003B90000E5
:100B8000A424002002460248C17D001D05F0E7B8FC
:100B9000A424002002460248017E001D05F0DFB8B3
:100BA000A42400202DE9F047044603883F48012291
:100BB0008CB000F1150A102B09D0112B55D01A2B2F
:100BC00071D1217AB2EB111F54D2012353E0027D7F
:100BD000417D05468A43011D06A805F0D3F814227D
:100BE00006A901A8FEF72CFCDFF8C09000263746C6
:100BF00009F114090DF104080AE000BF08EB4600F2
:100C00001D2283884946281D009705F06DF8761C43
:100C10000198B042F2D8287DA688C043C0B205F042
:100C200085F8A0F57F41FF3917D005EB400001237F
:100C3000868032465146281D05F0C9F80123324608
:100C40004946281D05F0C3F8E07B02280BD000239D
:100C50001649A2881631281D20E00CB00420BDE8FA
:100C6000F047FFF7D9BB0123F2E70023A2885146E2
:100C7000001D13E000230D490546A2881731001D11
:100C800005F0A5F8207A0221B1EB101F01D2012353
:100C900000E000230549A2881831281D0CB0BDE8EA
:100CA000F04705F094B80CB0BDE8F087A42400200C
:100CB00070B50A4E05460024317D2A46301D05F0E8
:100CC0004EF840B1B17D2A46301D05F048F808B114
:100CD000022400E00124204670BD0000A42400206E
:100CE00010B50024204605F0FFFF28B1641CE4B2D3
:100CF000182CF7D3182010BD03480122A240016828
:100D000011430160204610BDA424002010B5044604
:100D100005F0EAFF002802D001482044407E10BDC3
:100D2000A424002070B505460C46084605F0DCFFFB
:100D3000002808D004482A460119001D497EBDE854
:100D4000704005F00CB870BDA424002070B50646B4
:100D500015460C46084605F0C7FF002809D005488F
:100D60002B4601193246BDE87040001D193105F0CF
:100D70002EB870BDA42400207CB5054608880C461A
:100D80000930904201D90C207CBD68466DDF0028F7
:100D9000FAD121880820685420881B21401C80B289
:100DA000208029542088401C80B220802844DDF80F
:100DB00001100160BDF8051081802088801D80B27F
:100DC00020809DF80010490800D001212954208876
:100DD000401C208000207CBD10B50446FFF7E2FED9
:100DE000204604F04FFB2046FFF782FE204600F02D
:100DF0002DF9204603F074FA2046FFF765FD2146E1
:100E0000BDE81040014800F031B800002C2300205C
:100E100030B5044685B04FF6FF70A082124B0868CB
:100E20000D46A0610FCB8DE80F0004F1120168465A
:100E300063DF002816D1A07C8DF8120041F2235008
:100E4000ADF81000224604A90120A0DF002809D136
:100E50002946204600F034FB002803D129462046CD
:100E600001F06EFF05B030BD5C7202000A88102AE6
:100E700010D0112A10D0502A11D131F8062F4388F2
:100E80009A420CD14A89012A09D18269002A06D0E6
:100E9000097B1047898801E04FF6FF718182704716
:100EA000007800F00100704700B5164889B00023B3
:100EB000006807905022144907A805F083FC08B188
:100EC000FFF7AAFA6A460121002005F065FC08B187
:100ED000FFF7A2FA1720ADF81000684605F00CFCE9
:100EE00008B1FFF799FA094805F0FCFB08B1FFF7D4
:100EF00093FA074805F09EFC002801D0FFF78CFA12
:100F000009B000BD3C710200DC220020D90D0200B6
:100F1000496802000149085C704700004271020004
:100F20000649095C4FF0A040D0F81005C84010F009
:100F3000010000D0012080F00100704742710200E2
:100F400007490B5C4FF0A041D1F8042501209840DF
:100F500020EA0203C1F808351040C1F80C057047BB
:100F6000407102000249085C002102F095BE0000B9
:100F7000407102000249085C012102F08DBE0000B0
:100F8000407102000549095C4FF0A040D0F804050B
:100F9000C84010F0010000D00120704740710200ED
:100FA0007CB50024084E25460122305D00950023C3
:100FB0001146019502F0FCFD641C022CF4D3BDE83F
:100FC0007C4000F003B800004071020010B500241E
:100FD0002046FFF7C7FF641C022CF9D310BD10B5E3
:100FE00000242046FFF7C6FF641C022CF9D310BD75
:100FF00010B50246064B4FF0FF3000215C5C944276
:1010000001D1084610BD491C0429F7D310BD0000CA
:101010004271020070B50C4E0C004FF000053060BC
:101020000BD0012000F0A4F808B1022004E0002059
:1010300000F09EF800B10B202070706810B9FFF727
:10104000EBF80546284670BD4421002010B51A4C27
:101050000188606810290ED011292BD1401E6060D4
:1010600028D1FFF7D9F8002824D02168002921D001
:10107000BDE810400847D0B900210122084600F021
:101080009BF808B107280FD107220221012000F0A8
:1010900093F808B1072807D104220221002000F0AC
:1010A0008BF820B1072802D0216801B18847606819
:1010B000401C606010BD00004421002010B50020DD
:1010C00000F0AEF908B1062806D1012000F0A8F919
:1010D00008B1062800D1002010BD00002DE9F0471E
:1010E0000D468146FFF784FF0446042838D2DFF816
:1010F00078801C481D4EA8F1100735B3012D0ED085
:10110000022D2DD104EB440030444578002D27D02A
:10111000F968002924D02846BDE8F047084704EBC9
:101120004401755C0E44717859B179680E4A01EB3F
:10113000810149000E3A8068FFF7C4F908B987F8C1
:101140000290B17808F80410E0E78068FFF7FEF934
:1011500004EB4401314418F804008D78A842D5D03E
:10116000BDE8F0874871020040210020882300205C
:10117000FFF7D6BE10B50F4A042807D007280FD0B6
:101180000A2816D1BDE8104005F05AB8132150883E
:1011900076DF0CE000280CD0BDE81040FFF73CB92A
:1011A0005088A0F57F41FF3903D1FFF7D5FB082810
:1011B000F0D110BD2821002070B50023042810D2E2
:1011C0000D4D00EB4004012A02D101290CD0002270
:1011D000094E00EB4000304461B1012906D00229DC
:1011E00006D00723184670BD0E30C2B22A55F9E763
:1011F0004270F7E78270F5E788230020044A014631
:101200000020127AD20702D0084600F04FB870478B
:10121000302100202DE9F04106461F4800240F46EA
:101220004160C0E90262B0071FD5002501221146C6
:101230002846FFF7C1FF6D1C0446042D02D2002C86
:10124000F4D012E08CB97A0804211448FFF784F82E
:1012500004000AD1FFF76EF8040006D10F48104AC7
:101260000021001FFFF7E4F80446F00701D0FFF764
:1012700097FE74B909480B4A00210C38FFF7D8F8DB
:10128000040006D10548084A01210838FFF7D0F8C4
:1012900004462046BDE8F081302100205471020050
:1012A00093150200FD2D02002F0302002DE9F047E7
:1012B000594C05460026607818B100206070FFF791
:1012C00085FE0120554F4FF47A694FF4C87A4FF0EC
:1012D0006408182D2CD2DFE805F0890C0C2C3A4755
:1012E00051565A615A619B6969696969898C8F9203
:1012F0009B9B0020FFF746FE00284FF0000008D01F
:10130000FFF730FE022D02D14FF4E16006E04846BF
:1013100004E0FFF72FFE022D2ED05046B0FBF8F16F
:1013200025706068414300223868FFF7CBF8064615
:1013300059E00020FFF726FE28B10020FFF712FE3B
:101340004FF44870EAE70020FFF714FE14E0002095
:10135000FFF718FE00284FF0000002D0FFF702FE52
:10136000D5E7FFF707FED8E70020FFF70BFE0028C0
:10137000E9D00020FFF7F6FDC820CFE70020FFF7F7
:10138000DFFD257007E000203FE025702BE0607056
:101390000120FFF7D5FD00226168C5E760700120DC
:1013A000FFF7CEFD606800EB8001BCE77868FFF7CF
:1013B000CDF80646D5F1110000D01EB10220FFF78E
:1013C000D1FD10E001280BD9C82110FB01F1B1FBC0
:1013D000F8F16068002241437868FFF773F8064629
:1013E0000220FFF7C7FD3046BDE8F087FFF7EEFDAE
:1013F000CBE7FFF7EBFDC6E7FFF7E8FD04E0FFF7FB
:10140000E5FD0020FFF7B6FD0120FFF7B3FDBCE7C7
:10141000FFF7E5FDB9E70000302100204871020028
:1014200010B5FFF777FD032102F014FC002010BD7A
:10143000002901DA00207047026811440160012090
:1014400070470000F8B5461C00208DF800000D46DE
:1014500001246846FFF78AF8114A10682860D2E92B
:1014600000109568081A2B1A701C5B1C98420FD943
:1014700063B10C480C4B294000681B6802EB8101EA
:1014800063F39F20C8601068401C1060002401E0D6
:10149000881910609DF80000FFF78CF82046F8BD11
:1014A000402C00203872020038220020034803C874
:1014B000814201D10120704700207047402C00205C
:1014C00030B58FB00024054607949DF81C001C2100
:1014D00020F00F00401C20F0F00010308DF81C00B0
:1014E0009DF81D0020F00F00401C20F0F00010308F
:1014F0008DF81D009DF81E0020F00600801C8DF860
:101500001E006846FDF7B5FF9DF80000019440F00D
:1015100012008DF8000007A8CDE90440039406945A
:10152000A87C8DF83A0041F22450ADF838000D94B3
:101530009DF83400142120F00F00401C20F0F00032
:1015400010308DF834009DF8350020F0FF008DF844
:1015500035009DF8360020F00600801C20F01900B0
:101560008DF8360008A8FDF784FF0EA808900DA896
:1015700009900120ADF82800ADF82A40ADF82C0004
:101580000C94288805F10A0308AA6946A2DF0FB067
:1015900030BD00780221FFF7A1BD000005494FF0E2
:1015A000FF32082841F8202002D3084480F8482060
:1015B0007047000018290020F0B54FF0FF3512B138
:1015C0000023082601E008230C260C4C05E000BF90
:1015D00054F823707F1C04D05B1CB342F8D3284618
:1015E000F0BD26185DB286F8305044F82310002A6A
:1015F000F5D1E11881F84800F1E700001829002032
:101600000249084490F93000704700001829002072
:1016100038B10549814204D80449814201D90120E9
:1016200070470020704700005422002064220020F0
:10163000044A0168914201D0083101E0014938397A
:1016400001607047982A002070B504464FF6FF7578
:101650000A462846AC4208D14FF480742146104611
:1016600003F0CCFEA04209D070BDFF2CFCD821466F
:10167000104603F0B6FE08B1204670BD284670BD86
:1016800070B5084C050009D010342168002907D036
:1016900008682060496828468847F6E70834F4E778
:1016A00070BD0000042900202DE9F05F2648416844
:1016B000F1B3DFF898B00E688146DBF80040876828
:1016C0008078E11B21F07F45ED1CB0B9DFF8808008
:1016D0004FF48030C8F84403C8F804031120FEF723
:1016E0002FF81120FEF742F84FF0010AC8F800A0C9
:1016F0002F2001F0C3FF89F802A0B54200D2354681
:10170000124BE8193C3320F07F401860DBF80010E2
:101710005A46091B21F07F41001B20F07F40C91C65
:1017200081420FD9106818602F2001F0A7FF00E058
:1017300004E0BDE8F05F1120FEF72EB8BDE8F05FD1
:1017400004F056BABDE8F09FF021002004150140D6
:10175000001001402DE9F04117880646B81D1446D7
:101760000D46984202D90C20BDE8F081318807224D
:1017700006290AD34FF4486C4FF6FF73614501D92F
:10178000994202D17088062801D21046ECE76045E4
:1017900001D99842F9D1994203D0984201D08142AF
:1017A000F3D80520E85520881221401C80B2208003
:1017B00029542088401C80B220804119308805F0CF
:1017C0005EFA2188084480B220804119708805F0B3
:1017D00056FA2188084420800020C5E7FEF71CBE89
:1017E000F8B5134801F08EFA114D0026114C0C3D4E
:1017F00030B16169B9B101208DF80000684611E08F
:10180000287820B1616971B18DF80060F6E76878D9
:1018100058B1A168084800220068FEF753FE10B1D5
:10182000A16901B188472E70F8BD6168F2E7000038
:101830007821002088240020747102007FB50C46B6
:1018400010B1012004B070BD2079002638B141F6F6
:101850001D5501281BD0022826D00F20F2E7029642
:101860000396E0680190694601A804F0F3F850B1CE
:1018700002988188E18000882081BDF800100298DC
:1018800004F05CF900E00A2002212171DAE70A4B3A
:101890006A460021A01D04F099F838B106490839BC
:1018A0008E60CE600A28CDD12846CBE702488188D9
:1018B000019804F043F9F5E7182200202DE9F041E2
:1018C00000260125144C22E06068226900EBC6075F
:1018D000387805FA00F1114217D08A43226102F0EC
:1018E0002DF802463878E36805FA00F1194002FA4B
:1018F00000F3994209D17978012901D0012100E052
:10190000002151407A6802B19047761CF6B22078E7
:101910008642D9D3BDE8F081DC2100200E4910B504
:101920000A784C780023A24212D0521CD2B20A701C
:10193000022A00D10B70084A0B78183252F8232083
:1019400002608868104420F07F408860012010BD4C
:101950000360002010BD0000F02100203EB5094DBD
:1019600038CD8DE83800ADF8041007498DF8062011
:10197000ADF8020000220978FFF7E8F9684600F0A8
:101980008FF83EBDE8710200C021002010B5037839
:101990000022072B06D2DFE803F00504060C1C2505
:1019A0002B000A7010BD01220A7002898A81828888
:1019B00014E002220A7002898A818288CA81C26880
:1019C0008A60007C062802D00020087410BD012027
:1019D000FBE703220A70C2888A810289CA81C06833
:1019E000886010BD04230B70C0888881CA8110BD37
:1019F0000520087010BD000070B5064D0646002495
:101A000055F8241009B130468847641C082CF7D3D8
:101A100070BD0000C82900200EB5002911D0112981
:101A20000FD0002200920292ADF8020001910D2920
:101A300008D0862908D009208DF80000684600F0FB
:101A40003DF80EBD0B20F7E70A20F5E701490968CC
:101A5000084700008821002070B5054D0646002487
:101A6000304655F824108847641C022CF8D370BD0A
:101A7000907102002DE9F04107460024064E074D03
:101A800005E000BF56F8241038468847641CE87803
:101A90008442F7DBBDE8F081B8280020B0210020A7
:101AA00070B5054D06460024304655F82410884789
:101AB000641C022CF8D370BDB071020001490968A2
:101AC00008470000F47102007FB50446406858B131
:101AD0000020039020780026384D06285DD2DFE8EC
:101AE00000F05C05052641690120F2E7A08900F0BD
:101AF000B1F918B9E08904F03BF880B3A089A0F5EA
:101B00004040ADF80200A07B8DF804002078012849
:101B1000606806D048B104208DF80000606803902A
:101B20001AE00028F8D00320F6E70120F4E7A089A6
:101B300000F090F918B9E08904F01AF878B1A0899A
:101B4000A0F54040ADF80200A07B8DF8040060686D
:101B500030B105208DF80000A06802901AE01CE06A
:101B60000220F7E7A08900F075F9B0B1E089A0B9CB
:101B7000A089FF21A0F5404080B2ADF802008DF8A9
:101B80000410616881B107208DF800006E70AE709E
:101B900003F01EF9684602F0F3FF6878002802D0CF
:101BA0006E7003F015F97FBD06218DF8001003F06B
:101BB0009DF9EBE708208DF80000EBE79C21002061
:101BC00000B5114987B00978890702D4022007B00F
:101BD00000BDA0F57F41FF3911D005218DF800101F
:101BE00001218DF80410ADF8060000221146684668
:101BF00002F02EFC28B103F0C3FE0020E7E704202A
:101C0000E5E70820E3E700001022002000B50E48B9
:101C100087B00078800702D4022007B000BD0620FC
:101C20008DF8000000221146684602F011FC40B118
:101C30000648017809B10121017303F0A1FE0020DB
:101C4000EBE70820E9E7000010220020C82A002066
:101C500010B58CB014216846FDF70BFC1D480078C8
:101C6000810703D56846FFF7C7FE30E0C0072ED1D5
:101C7000012000F013F900F083F901248DF81440DD
:101C800002F082FC0C281BD2DFE800F006100610E0
:101C90001A1809181A1216120B200CB010BD0220C7
:101CA00000F0FCF8012000F0DFF8DBE7002000E0A6
:101CB00003208DF8180003E00220FAE78DF81840A1
:101CC0000022114605A802F0C3FB03F059FE0020D4
:101CD000E3E700001022002038B5040011D0694667
:101CE00003F0B8FE88B10A48BDF8001000EB0110FF
:101CF000818941B1A27A32B1491E81810020A0724E
:101D000038BD052038BD062038BD0A2038BD00008A
:101D1000A82A00201FB501A9684603F057FE04B0A9
:101D200010BD07B513460A466946002003F04EFE73
:101D30000EBD07B513460A460021684603F046FE6D
:101D40000EBD20B119B10068086000207047052061
:101D50007047000038B50D46040015D0A5B169469E
:101D600003F078FE90B10A49BDF80020606801EBED
:101D700002129189491C9181286060680C3068606A
:101D80000120A072002038BD052038BD0A2038BDD2
:101D9000A82A002018B10323002205F091B80520DD
:101DA00070470223002205F08BB812B1022305F020
:101DB00087B8052070470000064A5178082906D0E8
:101DC000054B43F82100491C5170002070470C203E
:101DD0007047000010220020C829002038B50446B2
:101DE0000A480D460078800701D4022038BD54B15E
:101DF0006946284605F078F90028F7D1BDF80010AB
:101E00002180658038BD052038BD000010220020EB
:101E100010B504460D480078800701D4022010BD9B
:101E200084B1218802290FD8094800EB01104289AA
:101E30006088121A032A07D405F04CF9002020808C
:101E4000608010BD052010BD042010BD10220020B0
:101E5000A82A002043F6FE71A0F54040884201D830
:101E6000012070470020704702490A7882430A70B7
:101E7000704700001022002010B504460078182892
:101E800002D1FEF72DFF207010BD10B5044600787A
:101E9000182802D1FEF724FF207010BD02490A78ED
:101EA00002430A70704700001022002070B51346EC
:101EB000002206461546862905D0112901D019B100
:101EC00070BD012500E001220D4C73B16179FEF770
:101ED0003DFF2A4621793046FEF738FF002261781F
:101EE0003046FEF733FF002203E06178FEF72EFF55
:101EF0002A4621783046BDE87040FEF727BF000033
:101F0000C4210020F8B506461A481F461546007839
:101F10000C46C00708D03046FFF77AFB30B13CB121
:101F2000200507D00620F8BD0120F8BD0220F8BD2D
:101F30000320F8BD3068A04204D8716804EB053076
:101F4000884201D90520F8BD7DB1684603F066FCE2
:101F500068B100980221C0E900670172210B8181FC
:101F6000058203F01DFD0020F8BD0420F8BD072008
:101F7000F8BD000028220020084603F06BBC0000DA
:101F80002DE9F0472748284C4FF01021001B02098B
:101F9000496910464B1C03D14FF080514969090330
:101FA000DFF888A09AF80070FB0702D00020BDE897
:101FB000F0870023A14607E009EB0314256815B15B
:101FC000646804B1401E5B1C9342F5D3002422E0F8
:101FD000002504F0FF0C2B4613E000BF09EB0316AD
:101FE000D6F80080B8F1000F04D0D6F80480B8F11C
:101FF000000F05D1767BAE4202D9354603F0FF0CC7
:102000005B1C9342EAD309EB0C13641C59601D7BE3
:10201000A1EB053119608442DAD347F001018AF857
:102020000010C3E764220020542200202822002050
:1020300020B10349496E01600020704703207047BA
:10204000D82A00202DE9F84307461D48DDF82080F6
:102050001E46007815460C46C0070CD03846FFF7E0
:10206000D7FA50B15DB154B145EA0400800708D0F9
:102070000620BDE8F8830120FBE70220F9E70320F2
:10208000F7E73868A04204D8786804EB86018842F4
:1020900001D20520EDE77EB1684603F0BFFB68B1D1
:1020A00000980121C0E900780172C0E903548682DA
:1020B00003F076FC0020DCE70420DAE70720D8E70D
:1020C0002822002070B5174A17490446106E0B7875
:1020D00000EB400002EBC0009D0715D5022C02D09A
:1020E000032C1BD102E002F089F917E04A78521C58
:1020F000D2B24A70032A11D900224A70082103F093
:102100003BFF03F075FB09E0580707D523F00400F7
:102110000870526E12B140F002000870BDE87040C5
:1021200003F0F6BBD82A0020282200200EB517A104
:102130009DF8080020F00F00401C20F0F000103047
:102140008DF80800062202A87CDF08B1FEF764F9CA
:102150000020009001905021ADF80400ADF800106F
:102160004FF4C870A021ADF80600ADF80210684623
:102170007ADF08B1FEF750F9064890F9000077DFE2
:10218000002801D0FEF748F90EBD00004D584E3032
:10219000303500002821002070B508B1012070BD45
:1021A000184C0025207B08B1257301E000F0A2F84F
:1021B0002078082824D2DFE800F02304080C10233C
:1021C000141EBDE8704000F01FB8BDE8704000F07C
:1021D0007FB8BDE8704000F061B8BDE8704000F025
:1021E00037B808496088203901EB00104068BDE825
:1021F000704002F0A9B96560BDE8704002F0B2B964
:102200000F2070BDC82A00201049F0B48A1C00209D
:102210000346A1F120050C18A67A3EB1A37205EB86
:102220000014A68916B9A47B012C0AD0401C80B2E8
:102230000228F0D30B704B804B60F0BC41F61D5070
:1022400070471080F0BC00F043B80000C82A00209E
:1022500010B50F4CA4F12001608801EB00108189BA
:1022600061B1052020700B480221002381800168A4
:10227000BDE8104001220848FFF744BE4168002332
:1022800001220548FFF73EFE0421217010BD000029
:10229000C82A0020202200205422002038B50A49F4
:1022A000084803240B684268898803EB810153883E
:1022B00004700020DB1C00909BB20448FFF7C2FEB4
:1022C00038BD0000C82A002020220020542200200F
:1022D000074910B54888091D03F00AFC18B1BDE88C
:1022E0001040FFF7DBBFBDE81040FFF7B1BF0000B3
:1022F000C82A0020F0B51D481D4901250678022492
:102300008B88A0F12002082E18D2DFE806F004170F
:10231000171A212C2C160189491C018100214180AA
:1023200080F80C1002EB01131B7843B10023441812
:10233000491C89B2A3720229F4D30570F0BD0123B0
:10234000F5E742685288D21C1A448A800470F0BDB6
:1023500046880D6802EB061256680E6055601381C0
:102360008C80062100E007210170F0BDC82A002002
:1023700020220020F0B504460088384D8DB050284A
:102380001ED0522802D0542828D103E0A08800F0A3
:1023900073FF23E006208DF81400A08800F0ACFB4A
:1023A000ADF81600A188ADF8181000F05DF9A0880E
:1023B0000022E978FEF7CAFC05A8FFF747FB0DE00D
:1023C000207B01280AD1A07A012807D12089A0F515
:1023D0002451023902D1A08800F088FFA878FEF7C6
:1023E00095FCC8B108A8FEF7C5FB142208A96846E9
:1023F000FDF726F800246E460BE000BF06EB44070D
:10240000A978B888FEF78EFC10B1B88800F034FFC8
:10241000641C0098A042F1D86878FEF777FCC8B138
:1024200008A8FEF7A7FB142208A96846FDF708F8DC
:1024300000246E460BE000BF06EB44076978B888BD
:10244000FEF770FC10B1B88800F050FF641C0098D3
:10245000A042F1D803F0D2FD0DB0F0BD80210020E4
:102460003EB504464088ADF802002078A8B10128A6
:102470001FD0022810D1207900280DD0608800F0EC
:102480007BFAA0F57F41FF3906D00F490122C978B8
:10249000FEF75CFC03F0B2FD3EBD00208DF80000AD
:1024A0006846FFF7D3FA608800F066FA00F0E4FEB1
:1024B0003EBD01208DF80000A088ADF804006846FC
:1024C000FFF7C4FA3EBD00008021002010B504468D
:1024D000007801280FD1608800F0CEFE608800F0FF
:1024E00089F9002807D0044960880122C978BDE82D
:1024F0001040FEF72BBC10BD8021002010B5104C01
:1025000000202070FEF7ECFB6070FEF7E9FBA07086
:10251000FEF7E6FBE070FEF7E3FB20716178182917
:102520000BD0A178182908D0E178182905D01828EF
:1025300003D001202070002010BD032010BD00003A
:10254000802100202DE9F04186B000F0A5F8684612
:10255000FEF710FB00246D464FF6FF77DFF834805E
:102560000FE000BF05EB4406B08800F0C5FAB842A2
:1025700005D1B088012298F80310FEF7E7FB641C30
:10258000A4B20098A042EDD803F038FD06B0BDE833
:10259000F0810000802100200178072902D14088C5
:1025A00000F0A4BE7047000010B504460A48417808
:1025B0002046FEF7B7FB68B10848002101EB410255
:1025C00000EB82025288A24201D1C8B210BD491C60
:1025D0000829F3D3FF2010BD98210020D824002023
:1025E00070B5094D094E002404EB440005EB800052
:1025F00071784088FEF796FB20B1641C082CF3D359
:10260000FF2070BDE0B270BDD824002098210020CA
:102610002DE9F041124E07460125BD403068FDF717
:1026200095FF00280DD10F4C2069284207D138466C
:1026300001F084F90028E06805D0284304E0A843AD
:102640002061BDE8F081A843E06020692843206153
:10265000A1683068BDE8F0410022FDF733BF0000FB
:10266000FC710200DC2100201CB5054AD2E90212EF
:10267000CDE900120022694602F04FF91CBD0000AE
:102680007C71020003484FF6FF71818001210170C7
:10269000002070478C21002010B54FF6FF7002F02B
:1026A0007BF803498880BDE8104003F0D3BC0000EC
:1026B0008C2100202DE9FC41804600F01DFA002409
:1026C00003250127A0F57F412646FF3908D06A4639
:1026D000082102F0FDF818B90198841D8688056864
:1026E00032462B4621464046A9DF042804D008285C
:1026F00004D00B2808D002E0112000E00020002FB9
:1027000000D10B20BDE8FC810027A80701D50125D9
:10271000E6E73443F5D0002426460325E0E72DE91B
:10272000FC41804600F0E8F90746A0F57F40FF38FD
:102730000ED001252A466D1C0026ADB26B4608213D
:10274000384602F0EFF8040006D0072C24D024E02D
:1027500043F20200BDE8FC81019903230A1D0B60CE
:102760004046891DAADF040004D00C2C08D0052C9B
:1027700008D008E00821384602F06CF904460CE065
:10278000012600E000240821384602F04FF900B18C
:102790000324002ECED100E00C242046DAE700000E
:1027A0001FB504460078012816D12079012813D1DD
:1027B000608802AA012102F08BF868B902208DF826
:1027C00000006088ADF802000398094900788DF890
:1027D0000400096868468847054808388088A0F5DD
:1027E0007F41FF3903D0BDE81F4003F033BC1FBD5C
:1027F000942100201CB500F07FF96A46012102F007
:1028000067F808B100201CBD019800781CBD0000CD
:102810002DE9F041084C07464FF6FF7643F20305D9
:10282000324661883846A7DFA84203D16088401C41
:102830006080F5E7BDE8F0818C2100208188A1F55A
:102840007F42FF3A03D0008808B101207047002082
:1028500070473EB5027802230C46B3EB520F17D1F6
:10286000B0F80110ADF80010C1788DF80210818821
:10287000ADF8041080798DF8060002AA01A920465F
:10288000FDF72CFD032202A96846FCF704FE08B1FF
:1028900000203EBD01203EBD10B50C46FFF784FE72
:1028A000FF280CD0074900EB400001EB8000416895
:1028B00021600189A180807AA071002010BD0520CF
:1028C00010BD0000D824002070B5018890B01029F8
:1028D0004FD1011D34226846FCF7B2FD9DF804007B
:1028E0004FF6FF76032134466D46B1EB500F2AD0E8
:1028F00002F0AEF99DF8040040080ED001280CD07B
:10290000022820D118E00F99281D1131FDF784FB12
:1029100018B100BFBDF8344015E00EAA0DA907207C
:1029200002F06EF90028EED10DE00F99281D491C28
:10293000FFF78FFF0028EDD10EAA0DA9072002F0A6
:102940005FF90028F1D1BDF80000291D00F03AFE22
:10295000B4420ED0BDF80000214600F07EF8BDF86C
:102960000000ADF8360001208DF834000DA8FFF707
:1029700073F810B070BD0000094A002101EB41035B
:1029800032F82330834205D101EB410002EB800095
:1029900040887047491C0829F0D34FF6FF707047F4
:1029A000D824002010B50D4C18200D4A607000206E
:1029B0004FF6FF7100EB400302EB8303401C59808C
:1029C0000828F7D3FEF78CF96070182803D001208F
:1029D0002070002010BD032010BD000098210020B1
:1029E000D824002070B504460D46401C00F098F92C
:1029F00000280ED01022691C601CFCF74CFD48B169
:102A00005FF0000605F1110104F11100FDF704FB70
:102A1000304370BD0126F5E7018811B9421892785C
:102A20000AB101207047491C0829F7D300207047DC
:102A300010B50C460346FFF7EFFF00280AD01888B0
:102A40002188884205D10822A11C981CFCF723FD8F
:102A500008B1002010BD012010BD02F09BBA10B5D6
:102A60000446007888B0002828D12079072825D18D
:102A7000608801AA072101F02BFF00281ED102F077
:102A8000E7F81DE06088BDF80010884218D004996E
:102A90000298FFF7A7FF98B16088FFF76DFFADF8C8
:102AA000160000208DF814006088ADF81800BDF8FD
:102AB0000000ADF81A0005A8FEF7CEFF08B010BD63
:102AC00003AA6946072002F09BF80028DAD1F5E74F
:102AD00070B50446FFF750FF0546204601F0FBFEA7
:102AE0004FF6FF7104468D4203D014B9284602F018
:102AF00051FA204670BD000010B5FFF755FDFF28C4
:102B000005D0044900EB400031F8200010BD4FF61D
:102B1000FF7010BDD82400203EB5044602F098F89E
:102B20000EE0019920464631FFF782FF28B901994E
:102B300020462A31FFF77CFF10B1BDF808003EBDEA
:102B40006A4602A9072002F05BF80028E9D14FF697
:102B5000FF703EBD2DE9F0410F4628B10120FFF77F
:102B600083F90120BDE8F081397961B10026264D55
:102B700001290DD0254C4FF002080229206822D0EF
:102B800003293CD128E001F0EDFC0121397134E04A
:102B90005FF0000005EB0011097802290CD0401C01
:102BA00080B20228F6D30220FFF778F90120FFF760
:102BB0005BF941F61D50D5E705EB0014606801F0A4
:102BC000C3FC267019E00146002301221048FFF7DC
:102BD00099F9A4F804800FE001F0B6FC0A492268D4
:102BE0002031498805EB01114B6823604A60A288B7
:102BF0000A81A4F804800E703E710028B2D0012032
:102C0000FFF732F90E20ADE7A82A0020202200208D
:102C100054220020F8B51C4C2078002832D0E068FF
:102C2000002658B10025607800282BD1684648DF7F
:102C3000052805D030B1FDF7EFFB0AE00125F2E7EA
:102C4000012606E0009800F09BFD216909B100987B
:102C500088479DB96078002814D16088ADF80000DD
:102C60006946A06861DF052803D020B1FDF7D4FBD9
:102C700004E0012502E0D4E902018847002ED2D009
:102C8000002DE6D0F8BD00003C22002070B50E46B5
:102C90000446007918494FF4A27501EB4010017FFA
:102CA0002068A1B14FF4887101F0F0FA4FF49071EF
:102CB000206801F0EBFA4FF49271206801F0E6FA17
:102CC0002946206801F0E2FA0C49206809E04FF437
:102CD0008E7101F0CAFA2946206801F0C6FA084947
:102CE0002068C0F80413206800F076FD3146BDE886
:102CF000704000F055BD0000702900201003020054
:102D000080000200054940880A88904204D349881F
:102D1000884201D8012070470020704770210020B0
:102D20000021425C0AB101207047491C1029F8D3E8
:102D300000207047800701D00020704701207047B5
:102D400030B58FB005461C216846FCF792FB002485
:102D50009DF80000019440F00A008DF800000394F3
:102D6000049405940694A87C8DF8360041F2255011
:102D7000ADF834000C949DF83000142120F00F00C1
:102D8000401C20F0F00010308DF830009DF831002C
:102D900020F00F00401C20F0F00010308DF83100C2
:102DA0009DF8320020F00600801C20F019008DF8FC
:102DB000320007A8FCF75DFB0DA807900CA808904F
:102DC0000120ADF82400ADF82640ADF828000B94A2
:102DD0002888AB1C07AA6946A2DF0FB030BD0000EF
:102DE0000A4602A1032001F0B7B900004150503A51
:102DF000494E464F3A25640D0A0000000348017A07
:102E0000C90702D00078FEF751BA70473021002080
:102E10002DE9F047234D81461F46287A0E469046FD
:102E2000084302D026B1002104E00520BDE8F08768
:102E30001C491031484603F059FB04460146002264
:102E40004846FFF733F81FB121464846FEF7E4FD38
:102E5000112C0FD005DC5CB1082C09D00D2C06D14B
:102E600006E0862C12D0A4F54050023800D003248E
:102E70002046DBE73246E9784846FDF767FF4246E1
:102E8000A9784846FDF762FF0024F1E73246E97869
:102E90004846FDF75BFF4246A9784846FDF756FFD6
:102EA000E6E70000C42100202DE9FC4117460C0094
:102EB000064604D02078C00705D0012004E0002198
:102EC0007EDFBDE8FC8102208DF804003046FFF76C
:102ED00013FE0546A0F57F40FF3808D001A80090FA
:102EE0002B463A462146304600F021F806E020788D
:102EF0002146C007304603D000F07DF804460BE0C1
:102F00007EDF04004FF00000009007D00022012374
:102F10002946304602F0F6FF14B106E00122F6E73A
:102F20009DF80410304603F017F82046C9E72DE954
:102F3000F04F85B090468946834600259A462E4636
:102F400001AA072118460E9F01F0C2FC040008D117
:102F5000029D95F84400183510F0010601D0029D3D
:102F6000343558EA04004FF000080FD175B126B986
:102F700005F11200FFF750FD40B12A4605F112019C
:102F8000584685DF044687F8008021E00CB1052C07
:102F90001ED199F80000C0070DD003AB0122072114
:102FA000504601F0BFFC04000AD10721504601F051
:102FB000B3FD040004D1494658467EDF040007D023
:102FC0000721504601F032FD10B1052800D003243E
:102FD000CDF80080387808B1012300E0002344B127
:102FE00000225146584602F08DFF05B02046BDE84C
:102FF000F08F0122F5E7FEB50F46064601F066FCAC
:103000000546A0F57F40FF381ED001AB0122072105
:10301000284601F087FC04000AD10721284601F068
:103020007BFD040004D1394630467EDF040007D022
:103030000721284601F0FAFC10B1052800D003242E
:10304000012000905CB102E00324002000900022E7
:1030500001232946304602F055FF2046FEBD0122DD
:10306000F6E700002DE9F041134D0F461646804665
:103070002978FDF757FE00281BD04046FFF73CFD9E
:103080000446A0F57F40FF3813D069784046FDF72D
:1030900049FE38B133463A4621464046BDE8F04144
:1030A00001F0EEBA324639464046BDE8F041FEF73F
:1030B00055BCBDE8F0810000C02100202DE9F0439F
:1030C00085B08146FDF722FE002820D06846FDF736
:1030D00051FD00246E4617E006EB44054946A888DA
:1030E000FDF720FE78B10B4FA888B978FDF71AFEDE
:1030F0008046A888F978FDF715FE0146A8880123C7
:103100004246FFF785FE641C0098A042E4D805B053
:10311000BDE8F083C42100202DE9F043264CA4F142
:1031200010092278D9F8048099F80350404694F8A1
:1031300001C0D9F8086031E002EB42036168521C1B
:1031400001EBC301A378D2B2934200D100220B78E5
:10315000022B02D0032B21D11DE003464F681946F4
:1031600003E0B94203D00B46C969B9B1F9E7A9B187
:103170008B4205D1C06918B9104E0125B5600026F3
:103180000F68C969D96149B10B683B440B6005E020
:103190000174C06900E000210028F9D19445CBD129
:1031A000C9E9010689F80350404502D00120BDE875
:1031B000F0830020FBE70000002200200010014007
:1031C0002DE9F0412A4F0446002607F11005D7F8F3
:1031D00004803EE002D02046E4691DE0287869685A
:1031E00000EB4002401CC0B201EBC2012870AA787B
:1031F000904200D12E700A784868012A2BD1027CB7
:103200004ABB8A684260CA6882600A69C2604969CA
:103210008161F97801B146604368BA68DFF854C04B
:10322000991A21F07F41614502D28268114406E07B
:10323000D11A826821F07F418A4202D9511A016075
:1032400000E006604660012186600174C66103F0FB
:103250004BFB002CBED1287869788842BED17968B2
:10326000414502D00120BDE8F0810020FBE70000CD
:10327000F0210020FFFF7F00FEB504460026A0F5E8
:103280007F40FF382FD02046FFF714FA050013D0F7
:103290000B2D15D0112D11D0A5F5405002381CD0A2
:1032A00009208DF800002046FFF726FCADF802004B
:1032B000ADF8044002950DE0022002E001260CE08A
:1032C00003208DF800002046FFF716FCADF8020041
:1032D000ADF804406846FEF7B9FB034832468178F2
:1032E0002046FDF733FDFEBD80210020FEB50446DB
:1032F0000026FFF714FA0546112818D003DCA5B103
:103300000C2D06D115E0862D27D0A5F540500238AA
:103310001CD009208DF800002046FFF7EDFBADF82A
:103320000200ADF8044002950DE0012002E0012604
:103330000CE007208DF80000ADF804402046FFF7B0
:10334000DBFBADF802006846FEF780FB044832461E
:1033500041782046FDF7FAFCFEBD0820EAE70000B0
:1033600080210020F8B5054600780C460026204252
:103370000FD100208DF800006846FDF7F7F8287897
:10338000204202D12043287001269DF80000FDF75D
:1033900011F93046F8BD000088B0002000F04EFF63
:1033A00008B1FDF739F80023334A05211846FDF727
:1033B00051F808B1FDF730F8304A40F6CD4103200E
:1033C000FDF728FF08B1FDF727F869460020FDF753
:1033D00021FE08B1FDF720F89DF8000002283ED03C
:1033E0005FF00004FDF760FD204601F0E1FD1CB137
:1033F00023A1032000F08AFEFEF798FEFCF728FFC9
:10340000264800901C486946C830FDF701FD08B108
:10341000FDF702F81C216846FCF72BF800204FF45A
:103420002031CDE900014FF47021029103218DF884
:103430000C10ADF80E008DF81000194805901948D1
:1034400006906846FDF728FB08B1FCF7E5FF16A1DA
:10345000032000F05BFE0320FDF79CFA07E0012447
:10346000C0E700BF00F0B0FD0028FBD13EDF002820
:10347000F8D0FCF7D1FFF5E76422002075110200B7
:103480004150503A494E464F3A426F6E6473206540
:103490007261736564210D0A00000000E12D0200D5
:1034A000E1430200DD1702004150503A494E464FB9
:1034B0003A54656D706C61746520737461727465E3
:1034C000640D0A0070B5144682880E4605462088B1
:1034D000111D0144921C994201D8FE2A01D90C20E9
:1034E00070BD521C32542088FF21401C80B22080C5
:1034F00031542088401C80B220808119288803F034
:10350000BEFB2188084480B22080AA8842B1A96805
:1035100041B13044FBF794FF2088A98808442080FB
:10352000002070BD072070BDF8B50E460178144626
:103530000546012901D1687830B12088821C9A4261
:103540002DD8012902D006E00720F8BD6978014492
:10355000891C994223D8181A801E87B2ADF80070D2
:103560002188B01C084469467DDF0028EDD1287809
:10357000022805D1BDF80010B94201D809210AE09E
:103580000821012805D16878B84202D8ADF80000BA
:1035900001E0ADF80070BDF80000FE2801D90C2054
:1035A000F8BD2288401CB0542088401C80B2208086
:1035B00031542088401C2080BDF800100844208031
:1035C0000020F8BD70B505460C004FF0FF0020D07C
:1035D0004FF6FF76B5421CD00E48012241782846AE
:1035E000FDF7B4FB2846FEF7DFFFFF2803D1FEF707
:1035F000F7FFFF280DD0084B00EB400203EB8201E0
:103600004D8023F8226022684A60A2880A81A2794C
:103610008A7270BD98210020D824002070B54FF622
:10362000FF750E46A84201D1002000E0401C84B284
:1036300008E02146304601F0FCFE08B1204670BD8E
:10364000641CA4B2FF2CF4D9284670BDC20800F057
:1036500007030120895C98400840704700F18040D2
:103660000068002800D00120704708B500F18040B4
:10367000002101600068009008BD000000283ED0D5
:103680001F49204A096800BF00BF00BF00BF00BF3C
:1036900000BF00BF00BF91422FD000BF00BF00BFDE
:1036A00000BF00BF00BF00BF00BF00BF00BF00BF22
:1036B00000BF00BF00BF00BF00BF00BF00BF00BF12
:1036C00000BF00BF00BF00BF00BF00BF00BF00BF02
:1036D00000BF00BF00BF00BF00BF00BF00BF00BFF2
:1036E00000BF00BF00BF00BF00BF00BF00BF00BFE2
:1036F00000BF00BF00BF00BF00BF0138C3D170478B
:10370000502200200024F40070B50F4C00252078D2
:1037100008B1852516E00021A16061602161E160AA
:103720004FF0E020D0F80001012610F0010F03D186
:103730000721002000F034F803F076F808B90348B8
:1037400006602670284670BD042900201805004038
:1037500038B500208DF800006846FCF707FF074CDD
:10376000207808B9FFF7D0FFE068401CE060012036
:10377000A0709DF80000FCF71DFF38BD0429002053
:10378000002801D1FDF77CBF704700F01F02012126
:1037900091404009800000F1E020C0F8801170479E
:1037A0004907090E002806DA00F00F0202F1E022B4
:1037B00082F8141D03E000F1E02282F8001400F00A
:1037C0001F02012191404009800000F1E020C0F873
:1037D0008012C0F800117047000B40B27047000023
:1037E0002DE9F0418846054601F020FC234E0028D3
:1037F00028461AD0FDF704FF304490F848008009AD
:10380000032802D001280ED007E04FF0A040D0F8E6
:103810001005E84010F0010F05D003212846BDE84F
:10382000F04100F028BA0221F8E701F00BFC002873
:1038300022D02846FDF7E4FE04464FF4807000EBEA
:1038400084000F4F81B207EB8400D0F8102542F0BE
:103850000102C0F81025084600F03EFAB8F1000F4A
:103860000AD02846FDF7CCFE56F82000002803D0E9
:103870000120A040C7F80403BDE8F081182900200A
:10388000006000402DE9FC41DFF8A480044608EB0D
:103890000400002790F930001346C0170E46401C64
:1038A00001D0082741E0F27819462046FDF784FE52
:1038B0000546401C38D0B07850B14FF0A04000EB26
:1038C0008400D0F8001721F00201C0F8001707E0CB
:1038D00000217378204600910A46019100F07AF9A0
:1038E000F078C0B11348317800EB8500D0F810258E
:1038F000114B1A40C0F810254FF4F8524FF44033E2
:1039000002EA042203EA01410A43D0F810150A43EF
:10391000C0F8102509E008EB0500327810F8481FC0
:1039200041EA8211017000E004273846BDE8FC81BD
:103930001829002000600040FFE0FCFF4FF0A0418C
:10394000D1F81015C14011F0010000D001207047DE
:1039500070B5144D95F8540008B1082070BD0020D2
:10396000411E2A18401CC0B282F830102028F8D31B
:1039700000242046FDF712FE641CE4B20C2CF8D3A0
:1039800007210620FFF70CFF4FF4BE7000F0A4F9EA
:1039900005494FF00040C1F80403012085F85400A8
:1039A000002070BD1829002000600040034890F8F6
:1039B0005400002800D00120704700001829002082
:1039C0000121B1EB507F01D10120704700207047E9
:1039D0002DE9F04105460079164F904607EB40145B
:1039E0000E46E07E10B10820BDE8F081707F2077A0
:1039F0002846FCF7F9FD5FEA080060603169216044
:103A000003D0317F2846FFF741F9287907EB4010B2
:103A1000007F0028286801D0082100E00421C0F8B8
:103A200000150020E0752076A0750121E176A076D2
:103A3000DAE70000702900202DE9F04705460079FB
:103A40003F4E904606EB40140F46207F18B10846C3
:103A5000FFF7B6FF30B1284600F074F820B111200E
:103A6000BDE8F0871020FBE784F81680A7600027E8
:103A7000A78228794FF0010806EB40143E46207FCC
:103A80000028286825D04FF49079494600F0FEFBC5
:103A90004FF4AC7A5146286800F0F8FB2868A17D05
:103AA000A268C0F84425C0F848152868C0F8088006
:103AB0006068F0B94946286800F0E3FB804651464B
:103AC000286800F0DEFB58EA0001F3D058BBA77568
:103AD0000FE04FF48E7A514600F0C7FB2868C0F81B
:103AE00008802146286802F09DFF61684FF48070CD
:103AF00089B13046B4E75146286800F0B1FB10B9EF
:103B0000A08A4845F7D1A08A484505D021462868B3
:103B100002F088FF00E08146A08AA17D8842EAD3B6
:103B2000A08A484501D10F26D1E75146286800F008
:103B300097FB0028F9D02868C0F80C80C7E7000080
:103B4000702900200079044901EB4010807D002895
:103B500000D00120704700007029002070B5044695
:103B600000791149002601EB401520682A7FC0F832
:103B70000065686888B1207901EB4010007F00285B
:103B8000206801D0094901E008498C39C0F80813C0
:103B90002068FFF721FEFFF7F8FD204601F05EFAEE
:103BA000EE766E6070BD00007029002010030200E8
:103BB00070B541EA4201DDE904564FF0A04441EA04
:103BC000830141EA052104EB800041EA0641C0F887
:103BD000001770BD70B541EA4201DDE904564FF0AF
:103BE000A04441EA830141EA052104EB800041EA57
:103BF0000641C0F8001770BD70B541EA4201DDE929
:103C000004564FF0A04441EA830141EA052104EB48
:103C1000800041EA0641C0F8001770BD1CB50021C4
:103C200000910B4601220191FFF7E6FF1CBD1CB578
:103C300000220B46009211460192FFF7DDFF1CBDEA
:103C40001CB5002100910B46012201911146FFF79E
:103C5000D3FF1CBD4FF0A04202EB8000D0F800273C
:103C600022F44032C0F80027D0F8002742EA014190
:103C7000C0F8001770474FF0A04202EB8000D0F868
:103C8000002722F44032C0F80027D0F8002742EA8B
:103C90000141C0F80017704701224FF0A043824055
:103CA00011B1C3F808257047C3F80C257047000010
:103CB00018B5084B6C4601441B68009306E000BF32
:103CC00054F82030D3F81035401C08C28142F7D890
:103CD00018BD0000F8710200034908B5084400212E
:103CE00001600068009008BD006000400249405833
:103CF000012800D000207047006000400048704755
:103D0000753D020030B5184C054689B0207828B1C1
:103D10006078854202D1002009B030BD20221349CD
:103D20006846FBF78DFB00208DF8140006200090FC
:103D30000820019005200390072002904FF0EB70BF
:103D400006900948001DFFF709FF0DB1002200E0B1
:103D5000074A05486946001DFFF73AFE0028DBD1F7
:103D6000012020706570D6E72C2200201872020016
:103D7000616A02002DE9F04FC1B00D004FF0000163
:103D800040914D984B991C46174601EB000B01D012
:103D90000A2000E00020804602F014F900287CD1BF
:103DA0006E46BCB9409840AA3118284602F020FE61
:103DB000002872D03846FBF767FBC22800D9C22022
:103DC000054640982A4630443946FBF739FB40986F
:103DD000284440904FF0200A409901EB080231320C
:103DE0000DEB01050DEB0206002002E005F801AB2A
:103DF000401C4045FAD300275C4508D305F801ABC9
:103E000005F801AB05F801AB06F801AB2DE04B98C6
:103E1000844202D24A98005D02E0211A4C98405C2C
:103E20002B46814602460121880022FA00F000F06C
:103E30000F00092801D9373000E03030C1F1010C02
:103E4000491E03F80C00EFD29D1C05F801ABFBF7EF
:103E5000F3FA016811F8090010F03E0F01D048464E
:103E600000E02E2006F8010B641C7F1C102FC3D32A
:103E70000D2030700A20707085F800A040996846C7
:103E800041444331409102F0A3F830B102F09AF876
:103E900018B9002040905C459ED341B02046BDE853
:103EA000F08F2DE9F043C7B000251C4690468946A7
:103EB0004E9F459502F086F800287AD1459805AEC8
:103EC000311845AA484602F093FD002835D0072F47
:103ED00027D2DFE807F004121B35424F5D00404651
:103EE000FBF7D2FA054645982918FF2919D830441E
:103EF0002A464146FBF7A4FA13E045982368C0F52B
:103F0000807130444246FBF711FE09E06068009082
:103F100045982368C0F5807130444246FBF706FEA1
:103F20000546294645A8FDF783FA459978B3B1F5CA
:103F3000807F3ED805A802F04BF847B0BDE8F0837B
:103F4000D4E90101CDE9000145982368C0F58071ED
:103F500030444246FBF7EAFDE2E7201D07C88DE842
:103F6000070045982368C0F5807130444246FBF74E
:103F7000DDFDD5E7201D0FC88DE80F0045982368AB
:103F8000C0F5807130444246FBF7D0FDC8E710E031
:103F900004F1080001AD0FC885E80F0060680090CB
:103FA00045982368C0F5807130444246FBF7BEFD5A
:103FB000B6E70020C1E7000000487047A33E0200BA
:103FC0000120FFF79FBE00002DE9F04F87B0FDF7FD
:103FD0006DFA18B1002007B0BDE8F08F454ED6E964
:103FE000014704EA070006EB8000A146641CC5688F
:103FF0000CE000BFC5F3891000EB9550044404EABF
:10400000070006EB8000A146C568641CA807F1D034
:1040100005F003004FF0000B022805D0AA0A01A802
:10402000C5F38313002153E004EA070006EB800088
:1040300004F1010A0AEA0704C268381B80004FEA4B
:104040009558001DC5F38913804521D929490C31A4
:1040500038B106EB840400F0FF0CA8EB00000C3430
:1040600004E00C46002108F0FF0C0846C0B2CDE980
:104070000210CDE9004CD6F81444C5F3C2005946ED
:10408000A047404511D108F103080AEB98042AE043
:10409000002106EB84000C300090CDE901810391F2
:1040A000C5F3C200D6F81444EAE760F38F1509EAB5
:1040B000070006EB8000C56016E000BF04EA070CAD
:1040C00006EB8C0C491CDCF80CC040F804CB641CDB
:1040D0009942F3D3C5F3C2000093D6F8105401AB54
:1040E0005946A84700B17460FDF7E0F980F001007F
:1040F00071E70000402C0020034AFF239360002357
:104100001360536000F092B8402C00202DE9F84372
:104110000F4F88460446002569462846BE68FDF7CD
:1041200091F9002812D00B480021406861F3820009
:10413000009964F3C50001EA060265F3891007EBF4
:10414000820268F39F20491CD0600091BDE8F8838B
:10415000402C0020387202002DE9F843124D8846A9
:1041600004460127914669463846AE68FDF76AF96C
:10417000002817D00D480021806861F38200009963
:1041800064F3C50001EA060267F3891005EB8202B9
:1041900068F39F20491CD0600091314005EB8101FC
:1041A000C1F80C90BDE8F883402C00203872020062
:1041B0002DE9F84F1B4C8846064603279A46914640
:1041C000DDF828B069463846A568FDF73BF90028B8
:1041D00025D015480021006961F38200009966F33B
:1041E000C50001EA050267F3891004EB820268F357
:1041F0009F20491CD06001EA050204EB8202491CA1
:10420000C2F80C9001EA050204EB8202491CC2F8D4
:104210000CA00091294004EB8101C1F80CB0BDE86D
:10422000F88F0000402C002038720200024A02F58C
:10423000826203C270470000402C002070B5064621
:104240000020FFF75FFD040008D1FFF757FD05468A
:10425000FFF7B2FE32462946FFF74EFF204670BDFB
:104260004058002800D00120704708B50022425075
:104270004058009008BDD0F80403084000D0012049
:1042800070474058002800D00120704708B5002230
:1042900042504058009008BD10B568B103280FD1B6
:1042A00008A1FFF733FF0220FCF7A8FF002807D082
:1042B000BDE81040FCF7B0B8BDE8104001F0C0BF49
:1042C00010BD00004150503A494E464F3A46617386
:1042D00074206164766572746973696E670D0A0093
:1042E00010B50446008888B03B2827D00DDC022892
:1042F0002ED0102813D011281ED12BA10320FFF798
:1043000005FF0020FCF77AFF1BE0512824D0552838
:1043100046D0562810D1A088132176DF11E029A1BC
:104320000320FFF7F3FE0720FCF768FF08B1FCF756
:1043300073F82A49A088488008B010BDA0881321CE
:1043400076DF0028F8D008B0BDE81040FCF764B86C
:10435000A088002167DFF4E71022A11D04A8FBF765
:104360006FF89DF810100029E6D09DF81800042879
:1043700003D0062801D00528DED102290ED0012065
:104380008DF800004FF4C170ADF80400A0886946B4
:10439000A8DF0028D0D0FCF73FF8CDE70220EFE7F8
:1043A000A0881721ADDFCCE74150503A494E464F27
:1043B0003A446973636F6E6E65637465642E0D0AAB
:1043C000000000004150503A494E464F3A436F6E4C
:1043D0006E65637465642E0D0A00000028210020BC
:1043E0000078002807D104483B21408876DF002868
:1043F00001D0FCF711B8704728210020134A10B5EE
:1044000000215170017A012912D002291DD1818920
:10441000491C8181C189491C89B2C181028A9142AA
:1044200013D1002101F0A8FDBDE8104001F0E0B972
:10443000838AC28A4FF480619C1A8C4200DAA1B24E
:10444000114489B2C1829942EBD010BD28220020CC
:10445000F8B51E4D17460E4601466A6F0020032A26
:1044600033D805F17804C6F1080C636C63452CD889
:1044700095F87000104400F00300C0EBC00005EB9D
:1044800080001C22FAF7DCFF686F401C6867DEB111
:1044900094F8440094F840100023084400F007000A
:1044A00004EBC00000900AE007EBC3020098D2E9D9
:1044B0000012C0E900126846FDF7BAF85B1CB3426F
:1044C000F2D3606C304460640120F8BDE82900201C
:1044D0000389CA1C1A4402814289511AC91E4181AA
:1044E000704700002DE9F04700F58055002700F1E6
:1044F0000804022090460E460880DFF8489012E03B
:104500002046FEF79BF9D0B1A068D9F8042090426C
:1045100001D9C9F804006088318804EB800408449C
:10452000C01C30800C34AC4202D22068401CE7D161
:10453000B8F1000F01D088F80070BDE8F0870127BE
:10454000E9E700001022002008B500210091014693
:104550000223024A0248FDF775FD08BD10720200F1
:104560005422002008B50020009004480223044A89
:1045700001680448FDF766FD08BD00002022002008
:1045800008720200542200202DE9F05F0025374F09
:10459000DFF8DC80DFF8DC90DFF8DCB02C46AA46E0
:1045A0002E46386800EB06300268424505D1334A92
:1045B0004168891830D001290DD000214FF4806264
:1045C00050F821305B1C33D009EB04110320087034
:1045D000641CA4B219E0BAF1000F09D0022209EB61
:1045E0000411641C0A70DBF800304B600A81A4B22D
:1045F00000220BF10401CBF80000FFF773FFBBF8BA
:104600000400022830D008200543761CB6B2032EE1
:10461000C7D3E8B2BDE8F09F09EB0411002201F80E
:10462000042B01C18A1DFFF75DFF45F00205CFE7AE
:10463000491C9142C4D3DBF8002059465AB109EB1A
:10464000041102220A7048600A480A81203044801E
:10465000641CA4B205E008600220ABF804004FF02F
:10466000010A45F00105D0E70420CDE754220020DF
:10467000DEC0ADDEA82A00202022002002FEE10ECE
:1046800070B5184D0E46044623CD86B08DE8230044
:10469000154DADF80420ADF802408DF80630A9782C
:1046A0002046FCF73FFB18B13046FEF711FA0FE049
:1046B0000721304600F0BAF950B1052808D1092188
:1046C0008DF80C100490ADF80E4003A8FDF7E8F942
:1046D000002229782046FCF739FB6846FDF7E0F90F
:1046E00006B070BDDC710200C0210020F0B585B0BD
:1046F0000746FCF70BFB002814D06846FCF73AFA93
:1047000000246D460BE000BF05EB44063946B08837
:10471000FCF708FB10B1B08801F086FF641C00981C
:10472000A042F1D805B0F0BD70B5054D0646002495
:10473000304655F824108847641C052CF8D370BD0A
:104740009C7102003EB5104D002400BF04EB8400B4
:1047500005EB800002F08EFB641C082CF6D30124CC
:10476000502008210094CDE901100949C200074BEF
:1047700001F5207000F0DCFC08B103203EBD0348C9
:10478000447000203EBD0000D8270020A821002052
:104790004825002000F030BA00F030BA2DE9FF4182
:1047A0000026044600960196029603964088ADF8CE
:1047B000020020798DF8040037462179608802F0E4
:1047C00030FB21783F4D0A2947D2DFE801F005058B
:1047D0003319193537393F4468B1417CC9070AD0CC
:1047E00002F058FB8DF800702078012800D00020DE
:1047F0008DF808001AE001208DF80000A06823E081
:1048000078B18168A26891420BD1417CCA0708D077
:104810006A6821F00101521C41F004016A60417490
:104820001BE002208DF80000E06803906846FFF767
:104830007BFF12E003200BE0042002E0052007E0EC
:1048400006208DF80000E0680290EFE701260720BF
:104850008DF80000EAE7E06802906868002826D03A
:10486000194C002505EB850704EB8700417C4A07BE
:1048700003D4C1F3400131421FD0817834F82700BE
:1048800000F0E8F8C8B105EB8501862834F821105E
:10489000ADF8021004EB870189788DF8041008D078
:1048A00009218DF8001002906846FFF73DFFBDE832
:1048B000FF8108208DF80000F6E76D1C082DD1D38C
:1048C000F5E70000A8210020D827002000F04DBA0D
:1048D000002300F0C5B938B505460024204609E09C
:1048E0008178284600F0A2F810B1052800D00324F2
:1048F0000098401C00906946284602F0A5FA00285E
:10490000EED134B9284600F034FA10B1072802D0AD
:104910000324204638BD0724FBE71346002200F09D
:10492000D3B900002DE9F0475FEA030815460E46AB
:10493000824604D0072E05D0082E17D102E00E20A3
:10494000BDE8F08795B1082D10D8504600F01CFA4C
:1049500060B14FF000093146504602F062FA041E81
:1049600025D0E068A84213D24F460AE04FF0070076
:10497000E6E7207C3844C1B22B4800F00DFC7F1CD8
:10498000FFB2E068B842F4D8204602F073FA0EE0B5
:1049900017D9EFB207E0207C3844C1B2224800F0BA
:1049A000FBFB7F1CFFB2E068B842F4D84CB9574615
:1049B000FF214FF6FF7002F034FA041E05D0078085
:1049C000A670207CFF2802D00CE01120B8E7294611
:1049D000154800F07FFB014620462174FF2913D0C3
:1049E0004FF00109E560217C0F4800F0C1FB020097
:1049F0000DD0ABB23146404600F052FAB9F1000F8B
:104A000010D0082E05D00DE002F034FADDE70320C7
:104A100096E7B8F800006FF0050101EB8000D8F8C8
:104A20000410888000208BE7C827002070B5002480
:104A300002F0F7F905000BD0686820B100F0BDF96D
:104A4000040000D00324284602F024FA204670BD5A
:104A5000052070BD7CB50D460646072903D0082DFC
:104A600001D007207CBD0020009001908DF80250FD
:104A70002946304602F0D5F9040004D0607CC00716
:104A800003D000207CBD05207CBD217C204800F0A7
:104A90006FFB020022D029466846E36800F095F9D2
:104AA000684602F0ACF904F10803694630466268D2
:104AB00000F00AF90146627C1648530704D59307B3
:104AC00002D543685B1E436051B111290DD0862980
:104AD00015D0072900D0032108467CBD03207CBDEA
:104AE00022F0060040F0010010E04168491C4160DE
:104AF00022F0020040F0040060740021ECE74368FB
:104B00005B1C436022F0040040F002006074E3E7A5
:104B1000C8270020A82100207CB50D46072903D016
:104B2000082D01D007207CBD002602F07AF9040090
:104B300002D0606810B11CE005207CBD217C0F48CC
:104B400000F016FB02004FF00000009001908DF87D
:104B5000025010D029466846E36800F036F96846EE
:104B600002F04DF9211D684600F010F906460928AB
:104B700001D030467CBD03207CBD0000C82700204A
:104B800001490968084700009871020030B587B0F4
:104B90001748FDF711F910B1032007B030BDFDF73C
:104BA00057F808B18620F8E700F0CCF90020029011
:104BB0004CF2070403900EE0694604A8FDF7CAF81A
:104BC00000988088A0F5404085B204A8FDF784F8DD
:104BD000284600F073F902AA04A92046FDF7A1F8BF
:104BE0000028E9D00349012008700020D5E7000023
:104BF000C91A02009C21002000F086B900F08AB991
:104C000070B5054686B014460E4600F5404080B2A9
:104C10000E4A6946FDF785F820B903A96846FDF7F5
:104C200099F810B1002006B070BDA57003984088B7
:104C300020800498606003988088A0F54040308010
:104C40006846FDF749F80120EDE70000A0210020AB
:104C50000248002141608160704700009C210020D3
:104C6000F0B587B01D46144607460E46FF280AD801
:104C7000084600F005F930B103AA3146384600F085
:104C8000E7F840B902E0072007B0F0BD01A903A88A
:104C9000FDF760F808B10520F6E7A6700198408896
:104CA000208055B182002868904204D8029960683B
:104CB000FAF7C6FB03E00420E6E70298606003A869
:104CC000FDF70AF80020DFE77FB588B01E460D46E5
:104CD0000446FF2830D8A87800F0D2F860B368689E
:104CE00006902888ADF81C0004F54040ADF800009F
:104CF000A87803AA00F54040ADF8020006A801908C
:104D00000120ADF80800A978204600F0A1F8052898
:104D10000A9813D010B10AA8FDF77AF8694603A8DB
:104D2000FDF738F8B0B107281DD0082819D00E2893
:104D300017D003200CB070BD0720FBE728B10AAAEA
:104D4000694603A8FDF731F8ECE7694603A8FDF7CB
:104D500028F8E7E71EB1314603A8FCF7F2FF002070
:104D6000E8E71120E6E78620E4E74FF6FF7000F061
:104D7000A5B810B5FF2801D9072010BD00F0A4F890
:104D800000F026F8002010BD00F0F0B870B5044621
:104D90000D46807800F074F858B121882846FDF758
:104DA0001DF8002804D0072805D0092800D00320CA
